:10200000008000206DBF000055BF000055BF0000DC
:1020100000000000000000000000000000000000C0
:10202000000000000000000000000000A5370000D4
:102030000000000000000000B1380000C1BF000037
:1020400055BF000055BF000055BF000055BF000040
:1020500055BF000055BF00004D67000059BF00008C
:1020600055BF0000A1A0000055BF000055BF0000F3
:102070007D62000055BF0000B1A0000055BF000008
:1020800055BF000055BF000055BF000055BF000000
:102090000000000055BF000055BF000055BF000004
:1020A00055BF000055BF000055BF000055BF0000E0
:1020B0000000000010B5064C2378002B07D1054B1B
:1020C000002B02D0044800E000BF0123237010BDA4
:1020D000E00200200000000084360100044B10B52F
:1020E000002B03D00349044800E000BF10BDC046E8
:1020F00000000000E40200208436010030B5030037
:1021000000780822C0433124C0B2410045B220000B
:102110004840C0B2002D11DA013A002AF5D15B78AF
:10212000312158400823420044B208005040C0B258
:10213000002C05DA013B002BF5D130BDC8B2EBE72E
:10214000D0B2F7E70023044A03720361C160026062
:10215000426043637047C0460000C07F10B5040072
:102160000069002801D009F0B7FF200010BD1FB59D
:102170000B0003A95BBA0B8000230193009302229A
:102180000133006903F03BFE05B000BD37B5040024
:1021900001AD0649FFF7EBFF290001230322206967
:1021A00003F076FE288840BA80B23EBD2DF30000D1
:1021B00010B50349FFF7DBFF0A2009F045FF10BD0A
:1021C000A230000070B5040000690E00002801D0A4
:1021D00009F082FF102009F07BFF05003100E26862
:1021E00003F0E2FD01212800256103F0FAFD00283B
:1021F0000AD02000FFF7DCFF2000FFF7C7FF034BEA
:10220000C018431E9841C0B270BDC0460100FFFF18
:10221000F0B50E00E021040085B009020192FFF73D
:10222000A6FF01230622206902A903F031FE051E44
:1022300000D180E002AB18009F78FFF75FFF874274
:1022400000D07BE002ABD81C5F79FFF757FF8742D5
:1022500000D073E002AB18785B780002C3183848EE
:102260005843384B8013C0180BF0F6FA36490AF081
:1022700011FE02AB60603060D8781B790002C31891
:1022800032485843000B0BF02DFB2F490AF002FE99
:10229000019B20601860E169061C0AF01FFC002801
:1022A00003D02300012236331A70216A301C0AF051
:1022B00001FC002803D02300002236331A7067681F
:1022C0006169381C0AF00AFC002803D023000122AF
:1022D00034331A70A169381C0AF0ECFB002803D0D3
:1022E0002300002234331A70E16A301C0AF0E2FB4A
:1022F000002803D02300012237331A70216B301CD1
:102300000AF0ECFB002803D02300002237331A70B8
:10231000616A381C0AF0CEFB002803D0230001229A
:1023200035331A70A16A381C0AF0D8FB002802D095
:10233000002335342370280005B0F0BD0025FAE7EE
:10234000171100006CEEFFFF0000C8427102000090
:10235000F0B50700102285B014300C000DF0DEF946
:102360003B7A012B5DD1384920680AF0F7FB3749E9
:102370000AF090FD36490AF057FF0AF0B9FB3249DE
:1023800085B260680AF0EAFB30490AF083FD304903
:102390000AF04AFF0AF0ACFB2D4986B2A0680AF0A9
:1023A00043FF2C490AF076FD0AF0A2FB430A5B02C8
:1023B000E0682749ED111D430AF036FF25490AF070
:1023C00069FD0AF095FB440A234BF611640234437D
:1023D00002AE33800A232DB26B446DBA75801800AB
:1023E000FFF78CFE0025307131000522012338698A
:1023F0000195009503F003FD184B24B233800A23A6
:1024000064BA6B4418007480FFF778FE01233071C2
:102410000522310038690195009503F0F0FC05B004
:10242000F0BD0F4920680AF099FB0E490AF032FD11
:1024300007490AF0F9FE0AF05BFB094985B26068BA
:102440000AF08CFB0749A0E70000444200809D434E
:1024500000FF7F470000C842611D000061100000BE
:102460000000344200002F43F0B50700102285B071
:1024700024300C000DF052F93B7A012B5DD1384924
:1024800020680AF06BFB37490AF004FD36490AF070
:10249000CBFE0AF02DFB324985B260680AF05EFB84
:1024A00030490AF0F7FC30490AF0BEFE0AF020FB82
:1024B0002D4986B2A0680AF0B7FE2C490AF0EAFC62
:1024C0000AF016FB430A5B02E0682749ED111D4341
:1024D0000AF0AAFE25490AF0DDFC0AF009FB440ACD
:1024E000234BF6116402344302AE33800A232DB22B
:1024F0006B446DBA75801800FFF700FE002530713F
:1025000031000522012338690195009503F077FC1D
:10251000612324B23380573B6B4464BA1800748043
:10252000FFF7ECFD01233071052231003869019578
:10253000009503F064FC05B0F0BD0E4920680AF078
:102540000DFB0D490AF0A6FC07490AF06DFE0AF0E2
:10255000CFFA084985B260680AF000FB0649A0E797
:102560000000444200809D4300FF7F470000C842B6
:10257000610B00000000344200002F4310B5102210
:1025800024300DF0CBF810BD10B5102214300DF032
:10259000C5F810BD1FB5064B03A90B80002301939E
:1025A000009302220133006903F029FC05B000BD4D
:1025B000212D0000343000787047353000787047A6
:1025C0003630007870473730007870477047000029
:1025D00070B50125104C2000FFF7ECFF0100002032
:1025E00009F012FF2000FFF7E8FF0100280009F0C2
:1025F0000BFF2000FFF7E4FF0100022009F004FFB9
:102600002000FFF7E0FF0100032009F0FDFE280095
:1026100002F00AF8DEE7C0461C040020F7B5FA27EE
:102620007F001A4E0121306801F072FC002829D089
:10263000174D280007F00CFD041E03D0280007F0FA
:102640007FFC0400002330681A00190001F08EFAA4
:10265000002C17D00F4C0521206801F059FC0028F0
:1026600010D0280007F071FC0100684603F02EFB33
:102670006946094803F088FA002320681A00190007
:1026800001F074FA380001F0CFFFCAE7FC02002025
:1026900058040020140300200C040020F0B585B07D
:1026A000304B0121186801F033FC002849D02E4D31
:1026B00003AA280002A9FFF7ABFD2C4C00284FD03D
:1026C000029E311C301C0BF091F800283ED1284F9F
:1026D000284920003E6007F0B5FD38680CF026FF61
:1026E0000B00022102000091200007F0D9FE20001B
:1026F000214907F0A7FD039E311C301C0BF076F832
:10270000002828D11D4F1E4920003E6007F09AFD89
:1027100038680CF00BFF0B00022102000091200032
:1027200007F0C5FE00230F4819001A00006801F0E9
:102730001DFA28001349FFF727FF28001249FFF769
:102740001DFFFA20800001F06FFFA9E720000F496C
:1027500007F09CFDCFE70E49200007F097FDE1E769
:102760000C49F9E7140300201C040020644D0020EC
:10277000540400208C23010097230100B80300209B
:10278000B5230100A8030020180300209A230100AC
:10279000BF230100D7230100F0B5012589B0344FD4
:1027A0000521386801F0B4FB002858D0314903A84E
:1027B00005F072F9304C049B02AA6360059BA3608C
:1027C000069B0193E36002AB1B7D2374D28A628275
:1027D000072B3BD829492A4807F058FD200004F070
:1027E00057FF00282CD02E00200004F0E7FF00281F
:1027F00026D0200004F0F5FFC0B20A2833D1002E05
:10280000F1D02049200007F041FD1F49200007F0CA
:102810003DFD1E49200007F039FD1D49200007F04D
:1028200035FD200007F020FD1A49200007F02EFD9D
:102830001949200007F02AFD2000184907F026FD5D
:10284000280009F001FC200004F0EBFF00233868A9
:102850001A00190001F08AF9FA2001F0E5FE2800BB
:1028600001F0E2FE9BE70D28BED00026BCE7C04683
:10287000FC0200201004002000030020F8230100C7
:10288000644D002003240100132401002B240100C7
:102890003D24010048240100582401005F24010068
:1028A00010B5040009F018FC200010BD70470000AE
:1028B0004F4BF7B507000E001868642101F028FBA4
:1028C00003000020834200D190E001908022019B10
:1028D000484D92009918280089B203F01DFD019B14
:1028E000454CE05401330193042BEFD123683B6046
:1028F000002301938122019B92009918280089B23C
:1029000003F00AFD019BE05401330193042BF1D144
:1029100023687B60002301938222019B9200991817
:10292000280089B203F0F8FC019BE05401330193C5
:10293000042BF1D123683360002301938322019B90
:1029400092009918280089B203F0E6FC019BE0543C
:1029500001330193042BF1D12368736000230193A9
:102960008422019B92009918280089B203F0D4FCBC
:10297000019BE05401330193042BF1D12368BB6028
:10298000002301938522019B92009918280089B2A7
:1029900003F0C2FC019BE05401330193042BF1D1FD
:1029A0002368FB60002786239B00F918280089B262
:1029B00003F0B2FCE0550137042FF4D1002723685F
:1029C000B36087239B00F918280089B203F0A4FCA8
:1029D000E0550137042FF4D123680548F360002344
:1029E00000681A00190001F0C1F80120FEBDC046C0
:1029F00014030020A00300209C030020E121F0B577
:102A0000784C85B04902200008F0AAF8764803F017
:102A1000EFFD012001F066F9744B1860012001F010
:102A200061F9734B73491860200007F02FFC724D59
:102A3000724E2900300003F091F8002866D0310072
:102A400002A803F0EDF806226D4802A90CF066FE1C
:102A50006C49200007F01AFC2A0050216A4803F054
:102A600025FC6A4E6A4F002855D031003800FFF728
:102A70001FFF0121002009F097FC0121080009F047
:102A800093FC0121022009F08FFC0121032009F0B1
:102A90008BFC604D44212800FFF794FB390028008F
:102AA000FFF756FC31002800FFF7DEFC0E2128005E
:102AB000FFF770FD584B80220193032352005749C2
:102AC00000935748002301F09BFB0221082009F0E6
:102AD0006BFC01210A2009F067FC0A21514802F031
:102AE000C2F90A2004F05EFDFA224F4912014F4854
:102AF00004F0D4FC04F066FD002811D120004C49FC
:102B000007F0C4FB012009F09FFAFBE720004949C8
:102B100007F0BCFB9CE72000474907F0B7FBA8E79C
:102B200004F046FD022803D12000444907F0AEFB23
:102B3000434804F079FF4349200007F083FB02A8D3
:102B400004F04EFD02A9200007F0AAFBFA223E4B3A
:102B5000D2005A823D4B80220193092352000093F8
:102B60003B4900233B4801F04BFB3B4CFF2120003D
:102B700006F038FB04220021200006F01EFA042291
:102B80002000110006F0D6F910220821200006F0DE
:102B9000F2F908258022314B31490193520000237C
:102BA0000095304801F02CFB2F4807F0C1F92F4B5E
:102BB0008022019305232E4C009321000023520014
:102BC0002C4801F01DFB80222B4B21000193520069
:102BD00000230095294801F013FB01F0E3FB05B049
:102BE000F0BDC046644D00202C430020140300209B
:102BF000FC02002067240100F84000200C040020A3
:102C00000004002090240100A003002018030020ED
:102C1000A80300201C040020BC040020BB240100E9
:102C20009D260000783E002060EA0000040000209D
:102C3000C724010076240100A12401000D25010014
:102C4000100400202E25010000030020B004002005
:102C50003C25010099270000C4030020B404002093
:102C60004D250100CD2E000058040020B80400209E
:102C7000592501001D260000C0040020D1250000B8
:102C8000444BF7B506000D001868642101F040F9C7
:102C90000027B8427CD0404C3368236080239B00DF
:102CA000F918E25D3D4889B2013703F012FB042FA9
:102CB000F4D100277368236081239B00F918E25D3B
:102CC000364889B2013703F004FB042FF4D1002702
:102CD0002B68236082239B00F918E25D2F4889B29C
:102CE000013703F0F6FA042FF4D100276B68236054
:102CF00083239B00F918E25D284889B2013703F06D
:102D0000E8FA042FF4D1B3682360002301938421EF
:102D1000019B224F89005918E25C380089B203F008
:102D2000D8FA019B01330193042BF0D1F3680026FC
:102D3000236085239B00F118A25D380089B201361B
:102D400003F0C7FA042EF4D10026AB682360862373
:102D50009B00F118A25D380089B2013603F0B9FA80
:102D6000042EF4D1EB680025236087239B00E9182B
:102D7000625D380089B2013503F0ABFA042DF4D15D
:102D8000002304481A001900006800F0EFFE012734
:102D90003800FEBD140300209C030020A003002087
:102DA000F7B5344803F07EFA334C34492000FFF77E
:102DB000C9F920000024324F32493A0009F084FC5E
:102DC00023002200210000942F4807F0EDF92F4B3B
:102DD0002F4A30481A60FB2252005C601A812E4B49
:102DE000FA2603600823B6003A0003742B49866074
:102DF0004682446009F068FC294D280006F0E4F999
:102E00003A002800274909F05FFCB123A82200936B
:102E1000C021B03B244807F0C7F95022234B1C497E
:102E2000234D1A815C6019602248290002F04EFF90
:102E30002900214802F04AFF204D214B2800AE60B6
:102E40002B606C60143007F0A7F908226B1C290076
:102E5000DA771C4807F046F808221B480E498660BE
:102E600046824460016002740C493A0009F02CFC6F
:102E7000F7BDC046A00300201C040020F84000203D
:102E8000000000205D21000064030020900300206A
:102E9000FC2801002803002098280100CD2500000F
:102EA000C403002061910000BC0300201004002036
:102EB00080436D3800040020060400206C030020CD
:102EC0001C2901005804002000030020F0B589B03F
:102ED000E24B0A21186801F01BF8002800D11AE221
:102EE000DF4BE04A1B68E04D13801B0C5380DF4B27
:102EF00000211B68280093801B0CD380042306F05C
:102F0000D1F8DB48FFF756FB04210200280006F049
:102F1000BFF8D748FFF751FB05210200280006F053
:102F2000B7F8D348FFF74CFB06210200280006F053
:102F3000AFF8CF48FFF747FB07210200280006F053
:102F4000A7F8CC4C082126682800B2B206F06EF82B
:102F5000320C0921280006F069F866680A21B2B22D
:102F6000280006F063F8320C0B21280006F05EF80A
:102F7000A6680C21B2B2280006F058F8320C0D21D8
:102F8000280006F053F8E4680E21A2B2280006F0EB
:102F90004DF8220C0F21280006F048F8B64C1021FD
:102FA00026682800B2B206F041F8320C1121280040
:102FB00006F03CF866681221B2B2280006F036F836
:102FC000320C1321280006F031F8A6681421B2B2A1
:102FD000280006F02BF8320C1521280006F026F800
:102FE000E6681621B2B2280006F020F81721280062
:102FF000320C06F01BF8A14C200004F049FB00281D
:1030000000D162E1280006F0D4F80821280005F07C
:10301000F7FF092184B2280005F0F2FF360C3604D0
:1030200034430004964EA4B204430A2128003460BD
:1030300005F0E6FF240C80B224040B210443280091
:1030400005F0DEFFA4B2000404430C2128007460E4
:1030500005F0D6FF240C80B224040D21044328007F
:1030600005F0CEFFA4B2000404430E212800B46092
:1030700005F0C6FF240C80B224040F21044328006D
:1030800005F0BEFFA4B20004044310212800F46040
:1030900005F0B6FF240C80B224041121044328005B
:1030A00005F0AEFFA4B2774F0004044312212800BC
:1030B0003C6005F0A5FF240C80B2240413210443D6
:1030C000280005F09DFFA4B2000404431421280049
:1030D0007C6005F095FF240C80B224041521044384
:1030E000280005F08DFFA4B2000404431621280037
:1030F000BC6005F085FF240C80B224041721044332
:10310000280005F07DFFA4B2000404430194019B54
:103110003568584CFB602168281C09F0BBFC00276F
:1031200000280DD15849281C09F0D8FC071E07D0EB
:103130005649281C09F0BEFC071E01D00127256056
:1031400075686168281C09F0A5FC00280DD14E495E
:10315000281C09F0C3FC002807D04C49281C09F0A2
:10316000A9FC002801D001276560454BA1689D6836
:10317000281C09F08FFC00280DD10021281C09F023
:10318000ADFC002807D04249281C09F093FC002818
:1031900001D00127A5603A4BE168DD68281C09F0E1
:1031A00079FC00280DD10021281C09F097FC00288B
:1031B00007D03749281C09F07DFC002801D00127E1
:1031C000E560304B2C4E1D683168281C09F062FC0C
:1031D00000280DD12C49281C09F080FC002807D0BC
:1031E0002A49281C09F066FC002801D00127356017
:1031F000244B214E5D687168281C09F04BFC0028A7
:103200000DD12149281C09F069FC002807D01F496D
:10321000281C09F04FFC002801D001277560194BCC
:10322000154D9E68A968301C09F034FC00280DD1AA
:103230000021301C09F052FC002807D01449301C32
:1032400009F038FC002801D00127AE600A4E019831
:10325000F16809F01FFC002850D11BE0FC0200209F
:10326000540400204C030020C4030020B8030020B5
:103270001C040020A80300201803002028030020BD
:103280003C030020540300200000A0C1000048437C
:103290000000C8420021019809F020FC00282DD030
:1032A0001E49019809F006FC002827D0019BF36015
:1032B00021001B48FFF74CF829001948FFF7D4F804
:1032C00029002000FFF7DCFC1AE0164903A804F0EF
:1032D000E3FB049B02AA6360059BA360069B01932A
:1032E000E36002AB1B7D2374D28A6282072B00D974
:1032F0008BE62100280005F094FF83E6002FD7D14C
:10330000002309481A001900006800F02FFCFA2079
:1033100001F08AF9DCE50120FAE7C0460000C84266
:103320001C04002090030020FC02002003001A78F7
:10333000002A0AD0591C2F2A01D05C2A03D15B78BD
:10334000002B00D008000B00F1E77047FA235B0167
:1033500058430023834202D0C0460133FAE7704746
:10336000F8B5104D06000121286809F01DF8002469
:10337000B44212DA0C4F2868396809F045F8642025
:10338000FFF7E4FF396828684B42594109F03CF8DF
:103390006420FFF7DBFF0134EAE7FA208000FFF743
:1033A000D5FFF8BD100000200C00002010B572B64B
:1033B0000320FFF7D5FFFBE770B5154C050020682B
:1033C0000E00002822D00368DB6898471149206866
:1033D00006F052FF1049206806F04EFF0F492068A2
:1033E00006F02CFF3100206806F050FF0C492068E1
:1033F00006F024FF0A222900206806F093FF2068C7
:103400000368DB689847642008F01EFEFFF7CEFFD4
:10341000C4040020992301006225010073250100E6
:103420007A25010010B50B4C206800280DD00A4900
:1034300006F022FF0949206806F01EFF2068036895
:10344000DB689847642008F0FFFD0120FFF788FF44
:10345000FBE7C046C4040020992301008125010038
:1034600070B50D4C0D002068002811D00B4906F0F6
:1034700003FF0B49206806F0E1FE2900206806F0F2
:1034800005FF20680368DB689847642008F0DCFDCE
:103490000220FFF765FFFBE7C40400209923010029
:1034A0008F25010010B50F4B1A001B688342FBD318
:1034B00054681119884203D14168100009195160FC
:1034C00041684418A34207D1074C2468A34203D0A3
:1034D0005C681B68611841600360904200D0106016
:1034E00010BDC046D83C0020C8040020F7B5040039
:1034F00000F090FF3F49404E0B68002B1BD1072086
:103500003E4B1A00034201D01A18824300203C4D62
:1035100068602A603B4D5B190725AB431860586013
:103520000B60981A1360384B50601860374B186066
:1035300080231B0633603368234207D001F002F872
:10354000FFF770FF002300930098FEBD002CF5D01C
:10355000072308341C4201D09C430834002CEDD0D2
:103560002A4F3B68A342E9D3254B1D686A68A242F3
:1035700002D22868002839D10968A942DED019682A
:10358000121B0831009129681960102A12D92B19D1
:1035900001935B0706D01E48FFF7C8FE0100C2205A
:1035A000FFF70AFF6B682A191B1B536001986C60B8
:1035B000FFF778FF14493B686A6808689B1A3B600C
:1035C000834200D20B60336813436B6000232B608F
:1035D00000F0B8FF009B5B07B6D00D48FFF7A6FED2
:1035E000010081204000FFF7E7FEADE72B0005005A
:1035F000BCE7C046C8040020CC3C0020CC0400201E
:10360000D83C0020F8370000D43C0020D03C0020FB
:10361000A025010070B500282ED0184D08382B6861
:1036200042680400134207D11548FFF77FFE0100EE
:103630008B204000FFF7C0FE2368002B07D0104806
:10364000FFF774FE01001820FF30FFF7B5FE636836
:103650002A681A4210D0216800290DD19343636073
:1036600000F0D8FE074A6368116820005B181360F9
:10367000FFF718FF00F066FF70BDC046CC3C00208D
:10368000A0250100D03C002010B5FFF70FF910BDB8
:103690000300012208334360C360036100235242E8
:1036A00082600360704700230361704743689A6833
:1036B0004B608A609A6851609960036808610133C1
:1036C00003607047020030B50C680832631C0AD1F1
:1036D00003695A684A6091608B60596003680861A9
:1036E0000133036030BD130052681568A542FAD952
:1036F000EFE70369416882688A60516059688142D6
:1037000000D15A60002202611A68013A1A601868F2
:1037100070470000000000000000000000000000F2
:103720000B4A13681868203080F30988022080F360
:103730001488BFF36F8F3FBCAE4608BC04BC62B6B2
:103740001847C046C046C046C046C046C046C046F0
:10375000E43C0020002307B50193084B1B680133AC
:1037600006D00748FFF7E2FD01007D20FFF724FEA9
:1037700072B6019B002BFCD007BDC046E03C002088
:10378000EE25010010B58024031F64041C60043B77
:1037900019600349043B1960143B40381A6010BD9E
:1037A0005537000070470000034B10B51B68002B15
:1037B00000D09847002010BD5C5300200F4B104AEA
:1037C00010B51A60FF220F4B1204196800240A4337
:1037D0001A60FF22196812060A431A600A4B0B4A44
:1037E0001C600B4914600B4A116007221A600A4BD7
:1037F0001C60FFF795FF200010BDC0465C53002001
:103800008D38000020ED00E010E000E018E000E05E
:103810007FBB000014E000E0E03C00208022044B6D
:1038200052051A60BFF34F8FBFF36F8F7047C046CA
:1038300004ED00E072B6044A136801331360BFF36D
:103840004F8FBFF36F8F7047E03C002010B5094CDD
:103850002368002B07D10848FFF768FD01003620D8
:10386000FF30FFF7A9FD2368013B2360002B00D147
:1038700062B610BDE03C0020EE250100EFF31080A1
:1038800072B6704780F310887047000010B5FFF7DC
:10389000F5FF040000F0CCFD002803D08022034B8C
:1038A00052051A602000FFF7EDFF10BD04ED00E0A7
:1038B000EFF309800E4B1A6820381060F0C04446C0
:1038C0004D4656465F46F0C008B572B600F0CEFED3
:1038D00062B60CBC116808681030F0C8A046A94652
:1038E000B246BB4680F309882038F0C81847C04666
:1038F000E43C002010B50400FFF79CFFA46BFFF729
:10390000A5FF6042604110BDF8B51500026C0400CF
:10391000866B002A0CD107681500002F04D180683F
:1039200001F02EF80500A76001362800A663F8BD57
:10393000002D0CD140680BF0F1FE6368226C9B18DF
:10394000A26863609342EFD323686360ECE7C068CA
:103950000BF0E4FEE368226C51429A1A2368E2609D
:103960009A4202D2A3685918E160022D05D13300B2
:103970005A1E93410025F61AD6E70025D4E7000029
:10398000F7B5846C01900091002C06D11948FFF71F
:10399000CDFC01001848FFF70FFDA36BE26B9342CB
:1039A00006D31448FFF7C2FC01001448FFF704FDDA
:1039B000A36BE26B0026934215D227002000009AE9
:1039C000453701A93D78FFF79FFF6DB206006B1CDC
:1039D0000BD1636A002B06D02000243000F0EAFEF1
:1039E000002800D001263000FEBD01356DB23D70CB
:1039F000F9E7C04637260100450B0000460B0000E2
:103A000003001A6C080010B5002A0AD0D9688C1877
:103A10009968DC608C4201D31968D960D9680BF0D1
:103A20007DFE10BD70B5040026004536FFF702FF8D
:103A300035786DB2002D10DCFF233370260044363C
:103A4000FFF704FFFFF7F6FE35786DB2002D19DCA5
:103A5000FF233370FFF7FAFE70BDA36C002B09D073
:103A600000212000FFF78CFF002801D000F034FF78
:103A7000013DDEE7636A002BDED02000243000F039
:103A800099FEF1E72369002BE2D02000103000F00E
:103A900091FE002801D000F01FFF013DD5E7000096
:103AA00070B504000D00002807D11A48FFF73EFC4E
:103AB00001000420FF30FFF77FFCFFF7BBFE216C05
:103AC000E36B22684B43D0185B1AD318E3602300E2
:103AD000A06062600020FF224433A0631A705A7015
:103AE00085420ED12369834207D02000103000F0B8
:103AF00061FE002801D0FFF791FEFFF7A7FE01202D
:103B000070BD20001030FFF7C3FD20002430FFF708
:103B1000BFFDF2E737260100F8B506000D001700DB
:103B2000002807D11048FFF701FC0100BB2040002E
:103B3000FFF742FC280070435430FFF7D7FC041E07
:103B40000FD00300002D00D054332360012120004A
:103B5000E6632564FFF7A4FF230050331F700023A2
:103B6000A3642000F8BDC04637260100F0B585B03B
:103B700004000F001D000192002806D15448FFF7F1
:103B8000D5FB01005348FFF717FC002F09D1236C28
:103B9000002B06D04E48FFF7C9FB01004E48FFF747
:103BA0000BFC022D09D1E36B012B06D04848FFF72F
:103BB000BDFB01004948FFF7FFFB00F093FE002822
:103BC00009D1019B002B06D04148FFF7AFFB010054
:103BD0004348FFF7F1FB00230093FFF72BFEA36B95
:103BE000E26B934201D3022D21D12A00390020003B
:103BF000A66BFFF789FEA36C002B10D0022D01D11C
:103C0000002E07D129002000FFF7BAFE002801D0BE
:103C1000FFF704FEFFF71AFE012005B0F0BD636A4E
:103C2000002BF3D02000243000F0C4FDEEE7019E0D
:103C3000002E03D1FFF70AFE0020EEE7009B002BC9
:103C400002D102A800F0FAFDFFF700FE00F0E2FB4F
:103C5000FFF7F0FD2200443213785BB2013301D14B
:103C6000002313702200453213785BB2013301D177
:103C700000231370FFF7EAFD01A902A800F0EAFD96
:103C800000281FD1FFF7D6FDA36BE26B934210D142
:103C9000FFF7DCFD20000199103000F04BFD200003
:103CA000FFF7C0FE00F04EFC002809D1FFF7B6FD7B
:103CB00006E0FFF7CBFD2000FFF7B4FE00F042FC6A
:103CC000012389E72000FFF7ADFE00F03BFCB3E7DE
:103CD00037260100F1020000F2020000F3020000AA
:103CE000F6020000020010B500210120FFF714FFCA
:103CF000041E07D000210B000A0081600160C16032
:103D0000FFF734FF200010BDF0B585B004001700A8
:103D10001E000191002806D12C48FFF707FB010087
:103D20002B48FFF749FB019B002B0AD1236C002B8A
:103D300007D02648FFF7FAFA0100F1208000FFF7CC
:103D40003BFB022E09D1E36B012B06D01F48FFF786
:103D5000EDFA01001F48FFF72FFBFFF78FFDA36B64
:103D6000E26B0390934202D30025022E1AD1230066
:103D7000453302931D7832006DB220000199FFF7A0
:103D8000C3FD6B1C1CD1A36C002B11D03100200093
:103D9000FFF7F6FD002801D1012503E0002FFBD03D
:103DA00001253D600398FFF76DFD280005B0F0BDCB
:103DB000636A002BF0D02000243000F0FBFCE9E720
:103DC000029B01356DB21D70E6E7C0463726010043
:103DD000C3030000C5030000F0B585B004000E0069
:103DE0000192002807D14748FFF7A0FA0100A02060
:103DF000C000FFF7E1FA002E09D1236C002B06D09A
:103E00004048FFF793FA01003F48FFF7D5FA00F06A
:103E100069FD002809D1019B002B06D03948FFF726
:103E200085FA01003948FFF7C7FA0027FFF702FDBE
:103E3000A56B002D15D031002000013DFFF7E0FDFE
:103E4000A5632369002B07D02000103000F0B2FCDE
:103E5000002801D0FFF7E2FCFFF7F8FC012005B0D5
:103E6000F0BD019D002D03D1FFF7F0FC0020F6E727
:103E7000002F02D102A800F0E1FCFFF7E7FC00F000
:103E8000C9FAFFF7D7FC2200443213785BB2013342
:103E900001D1002313702200453213785BB2013345
:103EA00001D100231370FFF7D1FC01A902A800F093
:103EB000D1FC00281AD12000FFF71CFD00280FD0EC
:103EC00020000199243000F035FC2000FFF7AAFD06
:103ED00000F038FB002801D1FFF7A0FC0127A5E77F
:103EE0002000FFF79FFD00F02DFBF7E72000FFF714
:103EF00099FD00F027FB2000FFF7FCFC0028EDD027
:103F0000B4E7C0463726010004050000090500009B
:103F1000F0B585B0041E019106D15948FFF706FAA5
:103F200001005848FFF748FA236C002B06D054488C
:103F3000FFF7FCF901005448FFF73EFA00F0D2FC0D
:103F4000002809D1019B002B06D04D48FFF7EEF960
:103F500001004E48FFF730FA002501272E00FFF739
:103F600069FCA36B002B18D0013BA3632368002BD3
:103F700002D100F09BFDA0602369002B07D0200038
:103F8000103000F017FC002801D0FFF747FCFFF7C6
:103F90005DFC0125280005B0F0BD019B002B0CD174
:103FA000002D06D03648FFF7C1F901003848FFF769
:103FB00003FAFFF74BFC0025ECE7002E02D102A824
:103FC00000F03CFCFFF742FC00F024FAFFF732FC63
:103FD0002200443213785BB2013301D10023137005
:103FE0002200453213785BB2013301D100231370F4
:103FF000FFF72CFC01A902A800F02CFC002825D119
:104000002000FFF777FC00281AD02368002B07D187
:10401000FFF710FCA06800F075FC0500FFF716FC28
:1040200020000199243000F085FB2000FFF7FAFC06
:1040300000F088FA002801D1FFF7F0FB3E008EE780
:104040002000FFF7EFFC00F07DFAF7E72000FFF714
:10405000E9FC00F077FA2000FFF74CFC0028EDD0D7
:10406000002D97D0FFF7E6FB616A002903D00921F4
:10407000236B1B68C91AA06800F0C8FC99E7C0460A
:104080003726010091050000950500009A05000003
:10409000E1050000002370B5064ADD00AC18266873
:1040A000002E02D1A950606070BD0133082BF4D1FD
:1040B000FAE7C0466053002070B5040016000D00FA
:1040C000FFF7B8FB2200443213785BB2013301D111
:1040D000002313702200453213785BB2013301D103
:1040E00000231370FFF7B2FBA36B002B05D1200058
:1040F00032002900243000F03BFB2000FFF792FC47
:1041000070BD704710B507F06FFF10BD074A136808
:104110001968074B002903D1012252421A607047E7
:104120001268D268D2685268F8E7C046E83C0020BE
:10413000EC3D0020F8B50400144B154D1E682868AE
:104140000F000430FFF7D5FA631C07D1002F05D00C
:10415000296810480431FFF7A9FAF8BD2B68341913
:104160005C60A64206D90C4B186829680431FFF739
:10417000A9FAF2E7094B186829680431FFF7A2FA97
:10418000074B1A68A242E8D91C60E6E7343E0020DB
:10419000E43C00200C3E0020EC3C0020E83C0020E9
:1041A000EC3D002070B5124C2368002B08D1114B58
:1041B0001B68012B01D9FFF731FBFFF765FAF2E726
:1041C000FFF738FB0C4BDB68DD68281DFFF791FA21
:1041D0000A4A1368013B13602368013B2360FFF721
:1041E00035FB286BFFF716FA2800FFF713FADAE71A
:1041F000AC3D0020F03C0020203E0020A83D0020E7
:10420000F0B5970085B0029038000C000393FFF7DB
:104210006DF9061E18D06020FFF768F9051E10D052
:104220003A000663A52130000BF081FA2B6B2A00BF
:104230000093002334329C4209D12B0034331C708C
:1042400011E03000FFF7E6F90126764281E0E15CFB
:10425000D154E15C002902D00133102BF7D12B009F
:10426000002243331A700A9C082C00D90824002627
:104270002B1D1800EC62EC642E650193FFF713FA16
:1042800028001830FFF70FFA09231C1B2B005C33A2
:104290002D61AC616D626E65AE651E70009B381F4E
:1042A00018180723039A98430299FFF76BFA0B9BA0
:1042B0002860B34200D01D60FFF7BCFA2C4B2D4C98
:1042C0001A6801321A602668002E45D125601B68E5
:1042D000012B1ED1142738007043274B01361818C4
:1042E000FFF7D6F9092EF6D1244F3800FFF7D0F9A1
:1042F000234E3000FFF7CCF92248FFF7C9F92248D6
:10430000FFF7C6F92148FFF7C3F9214B1F60214B86
:104310001E60214A136801331360204A6B641168E0
:10432000EB6A8B4200D9136014205843124B019959
:104330001818FFF7BBF9FFF789FA194B01261B681C
:10434000002B06D02368DA6AEB6A9A4201D2FFF7A3
:1043500065FA300005B0F0BD114B1B68002BD8D1B9
:104360002368EA6ADB6A9342D3D82560D1E7C04666
:10437000A83D0020E43C0020F03C0020C03D00208F
:10438000D43D0020F43D0020203E00200C3E0020C3
:10439000E83C0020EC3C0020B83D0020BC3D002063
:1043A000083E002013B50024134B962201931349B5
:1043B000230013480094FFF723FF012811D100F0D8
:1043C000CDFB01280DD172B601220E4B52421A606C
:1043D0000D4B18600D4B1C60FFF793FEFFF7EEF9D5
:1043E00013BD431CFCD10A48FEF7A0FF0100822048
:1043F0000001FEF7E1FFF3E7E83D0020CB260100D6
:10440000A5410000EC3D0020083E0020343E002085
:1044100081260100024A1368013313607047C046C9
:10442000B43D0020014B18687047C046343E002060
:10443000374BF7B51B68002B63D1364B1A68013236
:1044400000921A60002A16D1334C23681B68002B97
:1044500006D03248FEF76AFF01003148FEF7ACFF94
:10446000304B2268196821601A602F4A13680133A3
:104470001360FFF74BFE2D4E009A336800242C4F3B
:10448000934235D93B68DA6A14235343294AD358F7
:10449000012B00D90124284B1B68002B00D00124DC
:1044A0002000FEBD1B68009ADB68DD686B689A42DD
:1044B00025D32B1D18000193FFF71BF9AB6A002BC6
:1044C00003D028001830FFF714F91C4BE86A1A686B
:1044D000904200D9186014235843164B291D181810
:1044E000FFF7E4F83B68EA6ADB6A9A4200D30124EA
:1044F000094B1A681268002AD4D101235B42336049
:10450000C0E70F4A0024136801331360C3E7C046B5
:10451000B43D0020343E0020E83C0020812601000C
:104520007F0A0000EC3C0020F03D0020EC3D002024
:10453000E43C0020F03C0020383E0020BC3D002040
:10454000B03D0020F8B52E4C2368002B06D12D4835
:10455000FEF7ECFE01002C48FEF72EFFFFF76AF98C
:104560002368013B23602468002C04D00024FFF75B
:104570006DF92000F8BD254B1B68002BF6D01426E2
:1045800001271DE0DB68DC682000251D1830FFF7DF
:10459000B0F82800FFF7ADF81D4BE06A1A689042AA
:1045A00000D9186070431B4B2900C018FFF77EF834
:1045B000194BE26A1B68DB6A9A4201D3174B1F60F2
:1045C000174B1A68002ADDD1002C01D0FFF79EFDA1
:1045D000144D2C68002C0AD00126FFF729FF002873
:1045E00001D00E4B1E60013C002CF6D12C600B4B11
:1045F0001B68002BBAD0FFF711F90124B7E7C046BA
:10460000B43D00208126010085080000A83D00205F
:10461000BC3D0020F03C0020E43C0020383E00205F
:10462000F43D0020B03D002010B5041E02D1FFF77C
:10463000F5F810BD0A4B1B68002B06D00948FEF7A1
:1046400075FE01000848FEF7B7FEFFF7E3FE002104
:104650002000FFF76FFDFFF775FF0028E7D0E8E7C0
:10466000B43D0020812601003C050000F8B5284B30
:104670001A68284B002A02D001221A60F8BD1A607D
:10468000FFF740FD244A254D1368984204D9296854
:104690004C6DE31A1B184B652B6810601B6B20498F
:1046A0001A688A4208D15968914205D19A688A42AB
:1046B00002D1DB68934204D0286829683431FEF7C0
:1046C000CFFE1427174E34683B006343164A9958AF
:1046D000002911D0D1184868083340689B184860F9
:1046E000984201D143684B6014236343D218536846
:1046F000DB682B603460C1E7002C06D10B48FEF765
:1047000015FE01000A48FEF757FE013CDCE7C046F3
:10471000B43D0020383E0020A43D0020E43C0020B1
:10472000A5A5A5A5BC3D0020F03C002081260100E8
:10473000B70B000070B504000D00002806D1094831
:10474000FEF7F4FD01000848FEF736FE074B200097
:1047500019681831FEF7B6FF28000121FFF7EAFCBF
:1047600070BDC04681260100CE0B0000E43C002055
:1047700070B506000C001500002806D10A48FEF7A7
:10478000D5FD01000948FEF717FE094B30001968F6
:104790001831FEF78BFF002D01D00124644229005F
:1047A0002000FFF7C7FC70BD81260100F90B000057
:1047B000E43C0020C36870B5DC68002C06D11748C3
:1047C000FEF7B4FD01001648FEF7F6FD250018358A
:1047D0002800FEF78EFF134B1B68002B1BD1251DF5
:1047E0002800FEF786FF104AE36A11688B4200D961
:1047F00013601420290058430C4BC018FEF756FFD5
:104800000B4BE26A1B680020DB6A9A4202D9094B13
:104810000130186070BD29000748EFE781260100CC
:10482000290C0000B43D0020BC3D0020F03C0020DD
:10483000E43C0020383E0020F43D0020034B1B6880
:104840000360034B1B6843607047C046F03D002087
:10485000343E002070B505000C00002806D1194830
:10486000FEF764FD01001848FEF7A6FD002C06D1F6
:104870001448FEF75BFD01001448FEF79DFDFEF7AE
:10488000D9FF134B0026196823685A1C12D011480F
:104890002E6800686A68864202D001268A4209D9D9
:1048A000881A83420AD95B1A9B1828002360FFF7F5
:1048B000C5FF0026FEF7CAFF300070BD00230126A9
:1048C0002360F7E781260100940C0000950C00009E
:1048D000343E0020F03D00200122014B1A60704759
:1048E000383E0020054B01201B68002B04D0044BF0
:1048F00018684342584140007047C046083E0020B7
:10490000B43D0020F8B5041E27D01A4DC16A2B68AB
:10491000DB6A994226D28369002B04DB09222B68CB
:10492000DB6AD21A826114234B43134E62699B19CE
:104930009A4213D1271D3800FEF7DBFE2B68D86A98
:104940000E4BE0621A68904200D918601423584355
:1049500039003018FEF7AAFE0120F8BD2B68DB6A8B
:10496000E362F9E72B68C06CDB6A98428041404201
:10497000F3E7C046E43C0020F03C0020BC3D0020B2
:1049800070B5041E01D1002070BD1A4B1B68834214
:1049900006D01948FEF7CAFC01001848FEF70CFDC6
:1049A000236D002B06D11448FEF7C0FC010014480B
:1049B000FEF702FD236DE26AE16C013B23658A424A
:1049C000E1D0002BDFD1251D2800FEF792FE092241
:1049D000E36CD21AA2610B4AE36211688B4200D9E0
:1049E000136014205843084B2900C018FEF75EFEE0
:1049F0000120C9E7E43C002081260100E70F000008
:104A0000E80F0000BC3D0020F03C002070B5040021
:104A10000E0000283DD0036D002B06D11D48FEF787
:104A200085FC01001C48FEF7C7FCE56CB54200D2CE
:104A30003500E36AAB422CD0236D012B29D1174BF3
:104A40001B68A34206D11348FEF770FC010014480E
:104A5000FEF7B2FCA369E16AE562002B02DB0922E2
:104A6000551BA56114234B430E4D62695B199A4295
:104A70000FD1261D3000FEF73CFE0B4AE36A116899
:104A80008B4200D913601420584331002818FEF7D8
:104A90000DFE70BD8126010036100000E43C0020B0
:104AA00051100000F03C0020BC3D0020044B1A686F
:104AB000002A03D019680A6D01320A651868704728
:104AC000E43C0020F8B5FEF7B5FE0F4C2568002D3C
:104AD00016D10E4F3800FEF7DBFD0D4E3000FEF70D
:104AE000D7FD0C4B2A001F600B4B0C210A201E60C7
:104AF000FFF712F82060002802D00849FFF7CAFA31
:104B0000FEF7A4FEF8BDC046703E0020443E0020E3
:104B1000583E00203C3E0020403E0020D0260100B0
:104B200010B504004160006191420BD8D21AA3690C
:104B300001209A4205D2074B211D1868FEF7C2FDDD
:104B4000002010BD9A4202D201209942F9D2024BB4
:104B5000211DF2E7403E00203C3E002007B5FFF754
:104B6000B1FF0D4B1B68002B09D10C48FEF7DEFB93
:104B700001001420FF30FEF71FFC00200EBD084B83
:104B80009622019302230749009307480023FFF769
:104B900037FB0028E9D0F1E7703E0020D526010060
:104BA000743E0020202701008D4C0000F0B587B036
:104BB00005000C001E000192002807D11248FEF7E4
:104BC000B5FB0100C1204000FEF7F6FB0F4F3B682C
:104BD000181E10D0019B039404930595052C0CDC42
:104BE000FFF780FE00230C9A022800D01A003868D4
:104BF00003A9FEF7BBFF07B0F0BD0023320003A9F5
:104C0000FFF782F8F7E7C046D5260100703E002086
:104C1000F7B51B4D2B681A68002A04D1194A116890
:104C200013602960F7BDDB68DC681E68271D38004B
:104C3000FEF75FFD236A20009847230004222833F3
:104C40001B781342E5D0A369F3189E4206D23900BF
:104C5000286863602461FEF735FDDAE70021320041
:104C60000B0020000091FFF7A1FF0028D1D10648DA
:104C7000FEF75CFB0100E1208000FEF79DFBC8E72A
:104C80003C3E0020403E0020D5260100F0B589B012
:104C9000664E012533681C68002C02D00025DB68B5
:104CA0001C68FFF7B7FBFFF7BDFB614F03903A6845
:104CB000904215D33860002D40D05E4B1B681D68B4
:104CC0006B425D41039B2A00E11A5B4B1868FFF7BA
:104CD000F3F9FFF737FC002808D1FEF79FFD05E048
:104CE000FFF796FF039B3B60FFF72CFC524B002223
:104CF000186805A9FFF770F80028C9D0059B002B9C
:104D0000F4DB079C6369002B02D0201DFEF7F1FC49
:104D1000FFF788FB3B680600984201D2FFF778FF57
:104D200005983E600928E1D8250028352B7807F042
:104D3000DDFC373737795D733737795D039B9C42EC
:104D4000C0D8FFF7FFFB3368DB68DE68301DFEF775
:104D5000D0FC32002832137859071DD5B3693000D2
:104D6000E118039A2300FFF7DBFE002810D02B0088
:104D70002200290030000095FFF718FF002807D116
:104D80002E48FEF7D3FA0100FC204000FEF714FB8A
:104D90003000336A9847A9E701218B431370F7E786
:104DA000012213432B70A269069B20009918320040
:104DB0000393FFF7B5FE002898D0236A2000984798
:104DC0002B785B0792D5A369069A2000D21800239E
:104DD00019000093FFF7EAFE002887D11748FEF775
:104DE000A5FA01001648FEF7E7FA7FE70122134310
:104DF0002B70069BA361002B06D11048FEF796FA94
:104E000001001048FEF7D8FAA3693200F11820001B
:104E10003300FFF785FE69E79A0703D42000FEF709
:104E2000F9FB63E7012293432B705FE73C3E0020D0
:104E30006C3E0020403E0020703E0020D526010040
:104E4000130300002B03000070B5012204000D00C5
:104E500000F0FAFD02000120002A03D12900200001
:104E600000F0F2FD70BD030070B541331B78040003
:104E70000D00002B02D0383000F056FB2A00012133
:104E8000200000F0F9F8002801D1002070BD2500B5
:104E9000103521002800FFF7D7FF0028F5D02000AB
:104EA0002900383000F0A2FA431E9841C0B2EDE765
:104EB0000221084B00221961190030310A7006499D
:104EC0005A719A719A721A73DA63996341331A703C
:104ED0007047C046783E00203027010010B5010021
:104EE000014801F0BFFA10BD2C43002010B5FF218E
:104EF000014801F0B7FA10BD2C43002010B5012184
:104F0000007907F081FA054B1A78002A04D00022B4
:104F100003481A7001F092FA10BDC046DC3E002032
:104F20002C43002010B5084B04001A78002A06D143
:104F300001321A70054B064806CB01F063FA0021D6
:104F4000207907F061FA10BDDC3E0020E03E002031
:104F50002C43002010B583790400002B0DD0238949
:104F60005A1C2281054A934202D8FFF7BFFFF6E799
:104F70002000FFF7C3FF0023A37110BD0102000052
:104F8000030000B50800062903D9162200205A7133
:104F900000BD0F4B052916D8002207F0A7FB030818
:104FA0000C0E10120B49196001209A80F0E70A4993
:104FB0009A801960ECE70949F5E70949F3E70949DF
:104FC000F1E70949EFE7094A1A600022ECE7C04619
:104FD000E03E002000366E0100093D0080841E0086
:104FE00040420F0020A1070090D0030048E80100D4
:104FF00070B50C0006F0F2FF0500FFF777FFFF2801
:1050000006D006F0EBFF401BA042F6D3002070BD97
:105010000120FCE7F8B504000D001700FFF79AFF28
:105020002000FFF77FFF962120004900FFF7E0FFF7
:1050300040202843FFF752FF18263800F040083E72
:10504000C0B2FFF74BFF33000833F6D19520002D97
:1050500003D06A30082D00D17838FFF73FFF0025D4
:10506000FFF744FF43B2E072002B04DAFF2D02D0B9
:105070000135EDB2F4E7F8BDF7B50025027105730F
:105080008572857145710400019106F0A7FF012129
:105090000090207907F088F90121207907F0B4F910
:1050A000424E300001F0A4FA414B42499D8030004D
:1050B0005A68196001F0A6F90A35013DFF20EDB2EA
:1050C000FFF70CFF002DF8D1300001F0B7F9FA27F7
:1050D0002000FFF727FFFF00002220001100FFF74C
:1050E00099FF0600E07201280CD006F077FF009BC4
:1050F000C01AB842F0D9012320006371FFF7FEFE09
:105100002800FEBDD522082120005200FFF782FFB3
:105110000423184218D026730026FA27FF00002225
:1051200037212000FFF776FF320029212000FFF70A
:1051300071FF021EE07216D006F050FF009BC01AED
:10514000B842ECD90823D7E71E00FFF7CFFE013E97
:10515000F6B2E072002EF8D10223AA28CCD1802624
:105160002373F605D9E7237B022B15D13A212000C2
:10517000FFF750FF002801D00623BDE7FFF7B6FE7A
:10518000C0231840984201D1BD3B2373FFF7AEFE08
:10519000FFF7ACFEFFF7AAFE2000FFF7AFFE2000EE
:1051A0000199FFF7EDFE0500AAE7C0462C43002059
:1051B000E03E002090D0030070B5040006F00EFF22
:1051C000962605007600FFF791FE0300E072FF28A7
:1051D0000BD106F003FF401BB042F4D90F2320008F
:1051E0006371FFF78BFE002070BD0120FE2BFBD00A
:1051F0000D23F4E7F8B516001D009A18802304006B
:105200009B009A4216DC8379002B05D003688B4201
:1052100002D10389B3421AD9237B2160032B00D02A
:1052200049020A0020001121FFF7F4FE071E06D0F4
:10523000032363712000FFF761FE002029E02000B6
:10524000FFF7BAFF0028F5D001232781A371238936
:10525000B34208D3069E7719B7420AD0FFF746FE3D
:1052600030700136F8E7FFF741FE238901332381CF
:10527000EDE72389ED18A37AADB22581002B04D088
:10528000802301209B009D4203D32000FFF762FE94
:105290000120F8BD802307B59B0000920022FFF794
:1052A000A9FF0EBD70B5050008001400FFF716FE3B
:1052B00080239B00E61820780134FFF70FFEB442EC
:1052C000F9D1FF20FFF70AFEFF20FFF707FEFFF7E7
:1052D0000DFE1F23E87203400120052B05D011238A
:1052E00028006B71FFF70AFE002070BDF8B51D00A5
:1052F00004001600122300291CD0037B032B00D0CE
:1053000049020A0020001821FFF784FE0423071E2B
:1053100010D13200FE212000FFF7C4FF00280AD080
:10532000002D1AD0962120008900FFF761FE002889
:1053300006D1152363712000FFF7E0FD002010E087
:105340003A000D212000FFF765FE002801D014234C
:10535000F0E7FFF7CBFD0028F9D12000FFF7CEFDE5
:105360000120F8BD70B50500FFF7DCFDFFF7BEFDBD
:1053700004002800FF3CFFF7C1FD601E8441E0B23D
:1053800070BD0000024B034A1A6000229A807047E9
:10539000E03E002000093D007047020010B50121E9
:1053A00004000C32406A00F0EDFA00280ED0236AA7
:1053B000002B06D1E368227A236280235B421343E9
:1053C000237220230120227A1343237210BD000090
:1053D00010B50400406900F015FA002803D0207EC3
:1053E000014B4001C01810BDF03E002070B5427A5C
:1053F00004000D00002A01D0002070BD4B1CDB7F93
:10540000102B0ED10E3B43724B8C02625B01C361C9
:105410000023012065622072E360236163612376CB
:10542000EBE7202BE8D102001D3B4372496A1C3296
:105430000162280000F03EFA0028E9D1DCE770B5EF
:10544000437A04000E00002B01D1002070BDC26918
:105450008A42FAD3022B02D101202661F6E7002905
:1054600001D1E160F8E7436A01691A7C751E0932CF
:105470004B1ED340D540AB4201D800290DD1236A41
:10548000E360002DE8D02200E168606A0C3200F091
:10549000DFF9013D0028F4D1D7E7ED1AF1E700006C
:1054A00070B5437A05000E00002B01D1002070BDBD
:1054B000037A7F2B2CD90121FFF78AFF041EF5D038
:1054C0006B7A012B07D8EB691A0A037742771A0C1B
:1054D0001B0E8277C3772B6A9AB2A3761B0C2375B7
:1054E0001B0A63750F4B120A1B68E276002B0BD068
:1054F00021002000163118309847637E227E1B025F
:105500001343A3741B0AE3747F222B7A13402B727C
:10551000002E03D110222B7A93432B72300000F01F
:105520004BF9C4E7E83E002010B501210400FFF765
:10553000B7FF002802D000230120637210BD0000D5
:10554000F8B5437A0400012B01D00020F8BD037A9E
:105550009A07FAD55B0713D4174B1868FFF702FFB9
:105560000028F2D1227A202715003D403A4210D07F
:1055700001002000FFF794FF237ABB432372E4E786
:10558000C16903698B42E7D0FFF759FF0028E3D1D7
:10559000DBE70A4B1B68002B03D0280000F0F4F86F
:1055A000D3E7102320691343C0052372C30D802065
:1055B0008000C01A80B2C9E7F4400020F04000200B
:1055C000F0B5437A87B004000F000292012B30D16E
:1055D000057AAB072DD56B0723D401232D09AB43E7
:1055E0000393029B0093009A2369002A00D195E05F
:1055F000606A5D0A0279DB05013A1540DB0DEDB208
:105600000193002D1AD1002B18D1E168002948D14F
:10561000236A002B11D12000FFF7BFFE00280DD117
:1056200007E0C16903699942D7D0FFF708FF002856
:10563000D3D101230020636085E0E3608023019AD9
:105640009B009B1A6A461688009A9BB29A4200D920
:105650001E1C626AE368117C023B8B405269B6B241
:105660009B185D1980239B009E422FD13A4B1A68EC
:10567000AA4202D1012252421A6038483A00290057
:10568000039B0068FFF732FE0028D2D080239B00E6
:10569000FF18009B9B1B9BB2009323699E192661F8
:1056A000A1E705AA00F0D4F800284CD0636A059A57
:1056B0000133DB7F103B59424B4129495B420B4090
:1056C00028495B189A42A6D2E260B7E7019B002BFB
:1056D0001BD12369E269934217D3012000F06CF8D3
:1056E0000028A6D01C4B204A1D60012311780B43D3
:1056F00013703A001D4B01995B18981998420BD012
:105700001178013219700133F8E70121280000F007
:1057100079F80028EDD18CE7BF19BAE7E169227A60
:10572000994205D2E36180235B421343237206E072
:105730000F4B1B68002B02D0029B002BF3D1237A66
:105740001B0702D4029807B0F0BD01212000FFF72B
:10575000A7FE0028F6D16CE714000020F4400020DA
:10576000000001F0F8FFFF0FEC3E0020F03E0020AB
:10577000E83E002007B56B46D971073301221900B6
:10578000FFF71EFF0EBD000010B5084C0300216896
:105790000120002909D00648064A0068FFF7A6FD47
:1057A000002802D000230120236010BDF04000201B
:1057B000F4400020F03E002070B50E4D04002B7820
:1057C000002B01D101200AE003000B490B480C4AD1
:1057D00009680068FFF78AFD002801D1002070BD2C
:1057E000002CEFD02000FFF7CFFF0028F6D00023D9
:1057F0002B70E7E7EC3E002014000020F44000206E
:10580000F03E002070B50E4E050033680C00834258
:105810000FD00120FFF7D0FF002801D1002070BD7C
:10582000084B2900084A1868FFF734FD0028F5D016
:105830003560064B012019780C431C70EFE7C04619
:1058400014000020F4400020F03E0020EC3E002038
:10585000C36870B5013306000C0015008B4201D2FD
:10586000002070BD0136F27FC369C809102A00D13B
:10587000080AC0180D4B1B68834209D1F27F0C4BFC
:10588000102A0BD1E4B264001B5B01202B60E8E717
:105890000021FFF7B7FF0028F0D1E1E77F210C409E
:1058A000A4001B591B011B09EFE7C0461400002090
:1058B000F03E0020F7B58027040015000026019176
:1058C000BF002000019901AAFFF7C2FF002812D0F3
:1058D0003A00237C9A40631CDB7FB618103B5A4287
:1058E0005341054A5B421340044A9B18019A9A426D
:1058F000E7D301202E60FEBD000001F0F8FFFF0F8E
:10590000F7B505000C000192012901D80020FEBD69
:10591000C36801338B42F9D3471CFA7FC669CB09B0
:10592000102A00D10B0AF618124B1B689E4214D1A4
:10593000FA7F114B102A17D1019AE4B264001A536E
:1059400001200E4A1378034313702B7E8342DED965
:10595000AB689E190A4B1E60D9E700213000FFF7A3
:1059600051FF0028E4D1D1E77F21019A0C40A40027
:105970001A51E5E714000020F03E0020EC3E002024
:10598000F0400020F0B5146887B005000291019244
:10599000002C2AD000230134260000270093EB6856
:1059A00001330393EB68BB421AD9039B9E4201D992
:1059B000022634003100280005AAFFF749FF00281D
:1059C0000ED0059A731C002A16D102991A1B8A421E
:1059D00013D1310028001B4AFFF792FF00280FD196
:1059E00000230093009807B0F0BD029B0468013BC0
:1059F0005A425341DBB2CFE71C001E000137D1E70A
:105A0000B44209D2771E320039002800FFF778FF30
:105A10000028E5D03E00F3E7019B1968002906D174
:105A2000019B1C60009B002B08D10133D9E72200A9
:105A30002800FFF765FF0028F2D1D1E701342C6080
:105A4000D0E7C046FFFFFF0FF8B53F4B0500141E1F
:105A5000196020D0042A01D90020F8BD00210800D7
:105A6000FFF7D0FE0028F7D03849631E1B01CB1882
:105A7000BF33FF331B785B06EED11B3424010C19B6
:105A8000A38962891B041343632BE5D9E288248927
:105A900024041443E0D000212000FFF7B3FE0028C7
:105AA000DAD08022294992000B7BC87A1B0203437B
:105AB0009342D1D10A7C002ACED0CB89002BCBD007
:105AC0004B7B002BC8D02A76002201262B712A742A
:105AD0003200287C8240934204D0421C2A7407285A
:105AE000F6D9B9E7CA8A002A00D14A6AAA60CE89E3
:105AF0003619EE610B691B021F0C3B006F840F7C93
:105B00005B017A439219124E6A629B195B129B18D1
:105B10006B610A7DCE7C1202324300D10A6AE41A1C
:105B2000A418C4400B4AEC606B1C944203D80C22AE
:105B30000120DA7791E7084A944201D81022F7E76A
:105B4000CA6A6A622022F3E7F4400020F03E002097
:105B5000FF010000F40F0000F4FF000070B5050025
:105B600000680E00002801D006F0B6FA102006F0FA
:105B7000AFFA04003200682100F016F92C60012110
:105B8000200000F02EF970BD0323F0B54F7987B0E7
:105B900004AC0E0003900A2138000625237006F09D
:105BA000B9FD68433F18677037790A21380006F05D
:105BB000B1FD68433F18A770F7780A21380006F056
:105BC000A9FD68433F18E770B7780A21380006F04E
:105BD000A1FD68433F182771002773780A21180038
:105BE0000293677106F096FD6843029B3678181899
:105BF000A0710A21300006F08DFD45430398751908
:105C0000E57101970097012321000822006800F048
:105C1000F6F83A000221039800F048F807B0F0BD0A
:105C20000323F0B589B006AC2370002305000800FB
:105C3000019307330093210023000122006800F044
:105C400045F97F20A678A1796279E378677824788E
:105C500020400624059064421811604384461011C8
:105C60006043634484460811604362448446FA20DA
:105C70006144C000C9B209180598DBB20011604345
:105C800084460598D2B26044C0B202903811604395
:105C90003F18301144433419FFB2E4B22800019791
:105CA000009400F069F8280009B0F0BD1FB56B46FC
:105CB00019735A730023019300930222013303A93D
:105CC000006800F09CF805B000BD0000F8B5274B57
:105CD0000400CD1828003C2106F0A2FD28006171C7
:105CE0003C2106F017FD3C21050006F099FD280037
:105CF00021713C2106F00EFD1821050006F090FDF3
:105D00002800E170182106F005FD00230326184D38
:105D100080B223702278110031404F424F41FBB2D4
:105D20006E37FF37B84205D3EB1AC018013280B284
:105D30002270EFE701230F4D637063780B2B10D8AF
:105D4000EA18013A1278002903D1022B01D101325D
:105D5000D2B296B2824204D8801B013380B2637003
:105D6000EBE70130A0702000F8BDC04680BC92C7B0
:105D700093FEFFFF40270100F0B5FA2705AC267817
:105D800006AC257807AC2478FF00B94202D3054F52
:105D9000C91989B2C670057101704270837044716F
:105DA000F0BDC04630F8FFFF00230372FA330170E4
:105DB0004260C360704710B5037A0400002B0AD01C
:105DC0002178606800F010F9606800F0BEF9434285
:105DD0005841C0B210BD012100F003F80028EFD1F6
:105DE000F8E770B5040040680D0000F0DDF8012010
:105DF0002072002D02D02000FFF7DDFF70BDF8B546
:105E00001E00079B1500D318C26804000F009342C0
:105E100001D90020F8BD0178406800F0E5F8079B43
:105E2000002B0FD160682A00036839005B6898472F
:105E30008542EED13100606800F04FF9434258418D
:105E4000C0B2E7E7069B002BECD06068079A0368B6
:105E500006995B689847079B9842DAD1E2E7F8B564
:105E600005000F0016000178D2B2406800F0D4F8A7
:105E7000002486420AD1A64207D9686803685B6994
:105E8000984738550134A4B2F5E701242000F8BD45
:105E9000F7B507001600002400910193B44213D215
:105EA000FB68351B9D4200D91D00019B721BA2425D
:105EB00000D90023009A380011192A00FFF7CFFFFC
:105EC000002802D06419E9E70120FEBD73B5040083
:105ED00000201D0006AB40CB1B78019000902000F5
:105EE000FFF78DFF002805D0012332002900200094
:105EF000FFF7CEFF76BD00207047F8B505000E0015
:105F000017000024BC4208D02B682800315D1B68B4
:105F10009847002801D00134F4E72000F8BD70470D
:105F20000300FC33196ADA69914203D01B6AC01876
:105F3000007E704701204042FBE70300FC33D86934
:105F40001B6AC01A01D50130FF307047F7B50193C5
:105F5000FA238027002504009B008360114B7F00FB
:105F600008330E0045602900009203603A001830A3
:105F700009F0DDFB23002000FC332130DD613A0015
:105F80001D622900FF3009F0D2FB87239B00E31834
:105F90005D609D60009B20002375019B2661A575B7
:105FA0006375FEBD4C27010070B5040018260C492E
:105FB000006904F011FD206904F06AFB3300082138
:105FC000207D084D4343EB18595606F049FA082145
:105FD000607D4643AD19695606F042FA70BDC04671
:105FE000A0860100142D01008A2300229B00C154C9
:105FF0000C3BC3185A609A600123837570470200F6
:10600000FC32536810B501339468DBB29C4202D075
:1060100054680155536010BDF7B501930023040087
:10602000150018009A422FD02200FC32D36120695B
:106030001362012204F06AFB002826D027002069A1
:1060400004F0E6FB183701003800FFF7D8FF0126FF
:106050002069B5420ED004F039FB0221206904F01A
:106060003FFB206904F0D4FB01003800FFF7C7FFB5
:106070000136EDE704F021FB019B002B03D0032147
:10608000206904F02DFBE8B2FEBD0500FBE710B56A
:106090000300827D002082420ED0872292009C184D
:1060A0006268A4680132D2B2A24205D02133FF3324
:1060B0001800FFF7A4FF012010BD0300FC3399680E
:1060C0005A68914206D09A68805C9A680132D2B2CE
:1060D0009A60704701204042FBE700228A2370B596
:1060E0009B00827505000E00C15C006904F00EFB88
:1060F000002806D10321286904F0F2FA02242000C6
:1061000070BD872328009B00EA18536894682130EB
:10611000FF301C1B01D50134FF34002C0ED02C693C
:10612000FFF7CBFFC1B2200004F02EFB0028E8D11E
:106130000321286904F0D4FA0324E0E7002EDED01E
:106140000321286904F0CCFAD9E710B50121FFF743
:10615000C4FF10BD10B51830FFF7AFFF10BD70B50C
:106160000400006904F032FB002814D0206904F018
:106170003BFB002810D0206904F0A8FA0321206915
:1061800004F0AEFA8C239B00E558002D39D1002392
:10619000FC34E361236270BD206904F02FFB00280A
:1061A00009D0206904F025FB002804D0206904F000
:1061B0002AFB0028DFD0206904F020FB002826D12C
:1061C000206904F00CFB0028E5D0206904F01BFBDB
:1061D000002837D087239B00E218536892689B1AE7
:1061E00001D50133FF33FF21002B05D020002130E2
:1061F000FF30FFF762FFC1B2206904F0D8FAA07542
:10620000C9E7236820001B699847A847BFE72069B2
:1062100004F05CFA2069032104F062FA206904F0BA
:10622000F2FA0028B7D0872300229B00E3185A60B7
:106230009A600123A3758B239B00E3589342AAD055
:106240009847A8E72200FC32D369126A0133DBB217
:106250002069934206D104F030FA0321206904F04A
:106260003FFA98E704F0D4FA010020001830FFF755
:10627000C6FE206904F02AFAEFE7000010B50248D4
:10628000FFF76DFF10BDC046F840002010B5152384
:10629000142202490248FFF759FE10BD584D002054
:1062A000F84000200023036003717047F8B5050033
:1062B00010200E00170005F00BFF04003A0031001B
:1062C000FFF772FD2E712C6001212000FFF789FD80
:1062D000F8BD30B585B06B4649BA99819A730023F1
:1062E00001930093050003220068013303A9FFF71F
:1062F00086FD00280DD06524013CE4B2002C08D0B6
:106300002868FFF758FD002804D1013005F09CFEF5
:10631000F2E7002005B030BD1FB56B4649BA998140
:10632000002301930133009303AB0222190000689C
:10633000FFF7CCFD002801D06B46187B05B000BDEF
:1063400010B500F04FFB0022024B8000C3584933C8
:106350001A7010BD80430020F0B5040085B01E0007
:106360000AAB1B78103001930BAB1B78170002931C
:106370000CAB1B780D00039300F0B6F9200024301D
:1063800000F0B2F9220000234832A363E3632364E0
:1063900063641370537063729D4205D12721084BCB
:1063A000084A094809F028F92000019B256063711B
:1063B000029B2771E371039BA671237205B0F0BDA8
:1063C0007027010081270100D527010030B50400A6
:1063D00085B002AD00680291039204F015F96B7963
:1063E000227AE17920680093002304F0CBFA29791E
:1063F000029A206804F02CF9206804F0FBF805B03C
:1064000030BD000007B5837A00910192002B07D0C0
:106410009A070AD5EFF310835A425341C37272B6FA
:106420000099019AFFF7D2FF07BDDB07F8D5C368D3
:10643000014A9BB29360F3E700180040837A002B77
:1064400005D09A0704D5C37A002B00D062B67047F6
:10645000DB07FCD5C368024A9BB2D360F7E7C046AE
:106460000018004010B5006804F0D7F810BD70B5F2
:1064700005000C008E18B44206D021782800FFF7E2
:10648000F1FF20700134F6E770BD000010B5006820
:1064900004F0CCF903000020834203DB0C304343BB
:1064A000014A985810BDC0463C28010010B500684C
:1064B00004F0BCF9002805DB0C2343430348C01853
:1064C000406810BD01204042FBE7C0463C28010067
:1064D00010B5006804F0AAF9002805DB0C2343433B
:1064E0000348C018806810BD01204042FBE7C04649
:1064F0003C280100F0B506001036050089B03000D8
:1065000000F048F900286CD12F002437380000F043
:1065100041F9041E62D12800FFF7DAFFC1B2300052
:1065200000F018FA0221300000F038FA01222E495A
:10653000300000F00BFA300000F054FA2B4B8000D2
:10654000C5502800FFF7B2FFC1B2380000F002FAD0
:106550000221380000F022FA380000F043FA234B01
:106560008000C5502800FFF791FF012301002200A1
:10657000029330002300049403940194009400F0EB
:1065800033FAA8632800FFF781FF012302002100EE
:10659000019338002300049403940294009400F0C3
:1065A00023FAE863402009F097F82A00483228646B
:1065B000079200280BD00123137068646B6C1022C3
:1065C0001819E96B103409F0A9F8402CF6D1079B93
:1065D0001B78002B05D1380000F076F9300000F070
:1065E00073F909B0F0BDC04641630000804300204C
:1065F00070B5437A0400002B03D10122438142721B
:10660000C360230048331B78002B02D12000FFF722
:1066100071FF18263300082120790D4D4343EB18F4
:10662000595605F01DFF33000821A0794343EB18AC
:10663000595605F015FF082160794643AD19695692
:1066400005F00EFF034B200006CBFFF7BFFE70BD29
:10665000142D0100784300201FB5094A094B0A494F
:106660001360002393800293013301931633009348
:10667000162201330548FFF76FFE05B000BDC04686
:106680007843002000093D005C4D00202C43002091
:10669000084B1968002909D1EFF31080064A002839
:1066A00003D172B6BFF35F8F013111701A680132E6
:1066B0001A6070473845002034450020084B1A689E
:1066C000002A0CD01A68013A1A601B68002B06D108
:1066D000044B1B78002B02D0BFF35F8F62B670476C
:1066E0003845002034450020FF2310B50370C02337
:1066F000002104009B004170418083800C220830FF
:1067000009F015F8200010BD01230A0010B51A4049
:10671000194208D00C4A1370033343708368002B6E
:1067200000D0984710BD0223194204D006490B70CF
:10673000C3684270F3E704231942F3D0024A13708E
:10674000033343700369EAE74E48004110B5FFF791
:106750009FFF0C4B1B8C1B071B0F0B2B0FD80A4AE0
:106760009900885800280AD00F2408490A78A243C3
:1067700013430B70064B1978C9B2FFF7C5FFFFF73B
:106780009DFF10BD004800413C4500203F480041AE
:106790004E480041F8B500230278050018000B2A86
:1067A00077D93C4E2B702B780B2B07D801229A40BF
:1067B0003168114204D001332B70F4E7012068E006
:1067C000FFF766FF3768344C002F2BD12022334B64
:1067D000334859690A435A611022D9690A43DA6178
:1067E000022223883900934323802388013A1343EC
:1067F00023802C4B6063BF32A36308F098FFC02254
:106800003900284808F093FF4022C120264B800021
:106810002380264B26491A601A581140C0221204C0
:106820000A431A5001231A00297830688A4002432B
:1068300032600F261F4A880085501F483140027879
:10684000B2430A43027002201C4A1178814311703E
:10685000117819431170297822698B409A4322617B
:1068600060223F21636C934363642A79636C0A401E
:10687000134912020B400321134363646A79636C6A
:106880000A40104992050B4013436364FFF716FF5B
:106890000020F8BD304500200048004100040040C1
:1068A00070440020B0430020020F000000E100E02F
:1068B000FFFF00FF3C4500203F48004140480041A9
:1068C000FFC0FFFFFFFF3FFF70B50500FFF7E0FED1
:1068D0006B785CB2062B2BD02B7802240B2B27D89D
:1068E00001229A40144B1968114221D01968914332
:1068F00019601B68002B14D14022104BDA67BFF3DC
:106900004F8FBFF36F8F21000D4A0E311388A343C1
:1069100013800C4BDA698A43DA615A6910318A4371
:106920005A6100242B78084A9B009C50FF232B704F
:10693000FFF7C4FE200070BD3045002004E100E0F8
:1069400000480041000400403C4500200232920013
:1069500011507047037870B505000C0001710B2BC6
:1069600014D8FFF795FE29780F25094829400378A8
:10697000084AAB430B4303703F23516C1C40064B4A
:10698000240219400C435464FFF798FE70BDC046C2
:106990003F48004100480041FFC0FFFF037870B549
:1069A00005000C0041710B2B14D8FFF771FE2978FC
:1069B0000F25094829400378084AAB430B4303706D
:1069C0000323516C1C40064BA40519400C4354642E
:1069D000FFF774FE70BDC0463F48004100480041CB
:1069E000FFFF3FFF00787047F0B587B001930CAB15
:1069F0001E780DAB1B78050002930EAB1B78007858
:106A0000039310AB1F78049105920B2802D9002044
:106A100007B0F0BD6B78062BF9D0AB78002B00D116
:106A200079E01021080008F04DFE0028EFD02B7807
:106A30003B4A1B019B181A00D168002904D0D16879
:106A40008B4201D0D268F7E7D06001220223AA70FE
:106A5000964203D0DB18022E00D0130006240188D2
:106A6000114301800188A143018001881234A143B0
:106A70000180153C018826402A4C360221400E43F5
:106A80000680029E0188284C16402140B6020E4323
:106A90000680039E0188254C16402140F6020E43D5
:106AA00006800188224E3A40314012030A430721F2
:106AB00002800F9A114002884903D204D20C0A4383
:106AC00002806A4692884280049A4260029A002AB2
:106AD00008D0019A41685A43002F01D00F9CA24070
:106AE0008A184260059A8260039A002A09D0019AA6
:106AF00084685A431300002F01D10F9A9340E31882
:106B000083600023EA789A4203D02B78044A1B0161
:106B10009B18C3607CE7024B0001C01895E7C04694
:106B200070440020FFFCFFFFFFFBFFFFFFF7FFFFAC
:106B3000FFEFFFFF10B514220021103008F0F7FD21
:106B400010BD10B50400103103F044FB200010BD4F
:106B500010B50400143103F03DFB200010BD10B54A
:106B60000400183103F036FB200010BD10B50400FE
:106B7000203103F02FFB200010BD302030B50F2551
:106B80004B1C08701000010029400C00120937341A
:106B9000092901D830310C00013B5C700F28F1D875
:106BA00030BD000007B5002103480B000A0000912A
:106BB00003F0FAFA07BDC0466C450020F0B50400AA
:106BC00091B0039115000021202208A808F0AFFD24
:106BD000FF2126000B000A00009104A803F0E4FA4C
:106BE0004B4B48360693059B4322300006A902937F
:106BF000079301F071F8431C00D186E0454B6DBA54
:106C00000893636827001BBA099302AB1D84802395
:106C100002AA538408A91C22300001F06CF808373E
:106C20001C22002109A808F082FD0622390008A8CC
:106C300008F074FD102208A9300001F05CF8202251
:106C4000002108A808F073FD0623029308AD202256
:106C50002900300001F04FF8029B013B0293002B0A
:106C6000F4D12D4B222008933623FF33AB80039BB6
:106C70000622AB713D23EB710823FF332B8102AB5E
:106C80003900C01808F04AFD2A20244B24492B82E1
:106C900002ABC01809F078FC2000E27A0EA9FFF7D9
:106CA0006CFF322102ABC9182000227BFFF765FF81
:106CB0002000627B0FA9FFF760FF1E222900300031
:106CC00001F019F8039B032B0ED1164B0C222B80DD
:106CD000238A29006B80638A3000AB80124BEB80E3
:106CE000E3690A9301F007F8104B20210893104B39
:106CF00002AA0993FF23521813703000092208A931
:106D000000F0F9FF300000F0F0FF11B0F0BDC04618
:106D10006C31010001010600638253630C0C00001A
:106D20008428010032040000360400003706010305
:106D3000060F3A3BF0B593B005000E00170005F0C2
:106D40004DF901902C004834200001F041F8002852
:106D50000ADC05F043F9019BC01AB04200D9D3E028
:106D6000322005F071F9EDE709AE24223100200050
:106D700000F0E6FF3378022B00D0BDE029000022AE
:106D8000A38B08310192432B00D0B7E00A9B063257
:106D90001EBA3E6010A808F0B3FC002805D12B688D
:106DA0009E4202D36B689E4205D9200000F032FF5C
:106DB00000230193A5E0280004220DA9103008F05B
:106DC000ADFCCC220021200000F0BAFF200000F032
:106DD00015FF002800DC91E0200000F09AFF3B281E
:106DE00019DC322807DC06280FD9200000F091FFBB
:106DF000FF220240E6E733380828F6D805F06CFC9D
:106E00006EF50E34F5F5F554610005F065FCDF1004
:106E1000EE17EEEE2500FF28D8D0E6E7200000F0C0
:106E200078FF200000F075FFC3B20193CEE7200089
:106E300000F06FFF290004221431C4E7200000F0A5
:106E400068FF2900060004221831200000F078FFB6
:106E5000FF231E40321FB5E7200000F05AFF290033
:106E6000060004222031F0E720002F0000F051FF3F
:106E70001C373900060003A803F0ACF9002105A86F
:106E800003F0A0F9049B069A93420AD0390007A8A0
:106E900003F0A0F92B6E089A934202D0FF223240F1
:106EA00090E7042239008EE7200000F032FF29002D
:106EB00004222000283100F043FFAB6A1BBAAB620A
:106EC00084E7200000F025FF2900042220002C3157
:106ED00000F036FFEB6A1BBAEB6277E7200000F0A8
:106EE00018FF290004222000243100F029FF6B6ADA
:106EF0001BBA6B622B6369E700230193200000F04B
:106F000089FE019813B0F0BDFF2352E7F0B5FA21D6
:106F1000040085B0C9000120270005F00DF84837AE
:106F200060602060380000F076FE4421380000F0F8
:106F30007CFE0026B04200D18AE005F04FF80090B8
:106F40000026250044352B78032B78D0002B12D156
:106F500063680133636005F041F8FA21009B890002
:106F6000C01A05F0D7FB012182B22000FFF726FEF0
:106F700001232B705AE0042B11D163680133636045
:106F800005F02CF8FA21009B8900C01A05F0C2FB1D
:106F9000032182B22000FFF711FE0223E9E7012B53
:106FA00019D12000E16B03AAFFF7C4FE0300019092
:106FB000022839D1039B636005F010F8FA21009B89
:106FC0008900C01A05F0A6FB032182B22000FFF75A
:106FD000F5FD019BCDE7022B28D12000E16B03AA30
:106FE000FFF7A8FE030005281AD103232B70636A5C
:106FF000002B02D1E1239B006362A36A002B02D124
:10700000636A5B08A362E36A002B03D1636ADA0850
:107010009B1AE362A36A01262363E36A636390E732
:10702000062801D10023A4E7FF2BFBD0012E88D036
:1070300004F0D4FF009BC01AA36B984280D938009B
:1070400000F0E9FD63680133636004F0C7FF20646A
:10705000300005B0F0BDF7B5060000250627040096
:107060000836C36345628562C56201918263290067
:107070003A00300008F05BFB2000FFF75BFD3A00B0
:107080003000019908F04AFB230044331D702000B2
:10709000FFF73CFFFEBD4B68436000230381704750
:1070A00070B500240A2523000878002816D00600B1
:1070B000303E0131092E07D86B43303B1B189BB281
:1070C000FF2BF1D900200DE02E28FBD1032CF9D0A5
:1070D000601C141923710023C4B2E5E7032C01D10D
:1070E0000120D37170BD000007B5002103480B00DB
:1070F0000A00009103F058F807BDC046744500200F
:10710000F0B5050085B02C000F0004F067FF2900E2
:107110000C34022228810831200000F0ECFD01230C
:1071200002AAD38002AB991D0222200000F0E3FDE9
:10713000802302AA5B00D38002AB991D02222000AB
:1071400000F0D9FD002302AAD38002AB991D0222D0
:10715000200000F0D0FD02AB991D0222200000F0BB
:10716000CAFD02AB02222000991D00F0C4FD3E00C2
:107170003B78002B1AD035002B782F000135002BDF
:1071800001D02E2BF8D1BB1B0193002B0CDD02ABE1
:10719000591D0122BB1B20000B7000F0ACFD31001B
:1071A0002000BA1B00F0A7FD2E00E1E7802502AA0F
:1071B000511D200001220B7000F09DFD02AB6D00FF
:1071C000991D02222000DD8000F095FD02AB022215
:1071D0002000991DDD8000F08EFD012005B0F0BD7E
:1071E000F0B589B005000F00019204F0F7FE06002B
:1071F0002C000C34200000F0EBFD002809DC04F02A
:10720000EDFE801BB84200D9C9E0322004F01CFF1B
:10721000EEE76B6A6A68934200D0C2E02B8D352B93
:1072200000D0BEE0200000F0E9FC0B2800DCBAE052
:1072300005AE0C223100200000F082FD728802A908
:107240001302120A13431AB29BB2CB8028893188E9
:10725000884201D1002A06DB200000F0DBFC534EFF
:10726000300009B0F0BD1F00514A1740134204D04E
:10727000200000F0CFFC4F4EF2E7F3883D001A02E9
:107280001B0A13439BB20093002B1FD1200000F078
:10729000C1FC494EE4E70021200000F051FD02ABA3
:1072A0009B7A002B0BD00A2302A95B18012219003C
:1072B000200000F045FD02AB9A7A002AEBD10422AF
:1072C0000021200000F03CFD0135ADB205AB9B88EC
:1072D0005BBA9BB2AB42E6D8022502AB5E1D01222F
:1072E0003100200000F02CFD32783F23110099433B
:1072F00037D1002A05D0200000F022FD3378002B82
:10730000EBD104AE2A003100200000F019FD0A2361
:1073100002A95B1819002A00200000F011FD0422C8
:107320000021200000F00CFD02AB991D2A00200076
:1073300000F006FD33885BBA9BB2012B19D002AB7B
:10734000DA88002152BA200092B200F0F9FC01372D
:10735000009BBFB2BB42C0D1200000F05BFC174EC7
:107360007EE701220021200000F0EAFC00233370B8
:10737000C7E702AB5E8976BAB6B2012EDFD1DA88F2
:1073800052BA92B2042A04D0200000F043FC0C4E02
:1073900066E701992000043100F0D2FC60E7094E55
:1073A0005EE7094E5CE7094E5AE7C046FCFF000065
:1073B0000F020000FBFF0000FAFF0000F6FF0000D4
:1073C000F7FF0000FFFF0000FEFF0000FDFF0000D0
:1073D000F0B585B005000F0000920193FFF760FE45
:1073E000041E2ED11D4B6A685B689A422BD004F0B4
:1073F000F5FD2E000F21802301400C36DB0030000C
:10740000C91800F012FC012818D1154B352202933F
:107410006B68300002A9039300F05EFC00280AD0DC
:1074200039002800FFF76CFE002804D0300000F07F
:107430005CFC00280AD1300000F0EDFB200005B014
:10744000F0BD0124FAE702246442F7E72800009A1D
:107450000199FFF7C5FE0400EDE7C0467445002022
:107460006C31010010B501000422012001F0E4F9A3
:1074700010BD10B501000422052001F0DDF910BD9A
:1074800010B501000622092001F0D6F910BD10B593
:10749000010004220F2001F0CFF910BDF0B53A4EE3
:1074A00089B03368012505921A00384C0390049185
:1074B0002A402B420ED1FA2320009B002365344B37
:1074C000E264A3645C3002F067FE230008226833A4
:1074D0001A7035602F4D2C6001F06CFB0024A04227
:1074E0004FD02D4F04AB2D4E06979C813900079A43
:1074F0003000FEF787FF0398FFF7C2FF230022004A
:107500002100009406A802F04FFE07A8FFF7BFFF76
:107510003000FEF793FF059B049A03992868FFF754
:107520009AFD040001282CD1002204AB06979A8111
:10753000079A39003000FEF765FF296806A8FFF7B3
:1075400000FB07A8FFF7A3FF296806A8FFF707FBC2
:1075500007A8FFF787FF296806A8FFF7F9FA07A829
:10756000FFF787FF3000FEF769FF296806A8FFF7DD
:10757000FDFA0B4B079A5A6004F036FD80B200F01A
:1075800053FD200009B0F0BD7C450020944500204B
:107590001C2901009045002000127A002C43002095
:1075A00088450020014B18707047C0461A00002023
:1075B00010B501F07BFB012802D0022800D000208A
:1075C00010BD0000044B00201B78333BDBB2042BC2
:1075D00001D8024AD05C7047844600208B28010005
:1075E00037B5040002F0D8FD00236A46084D9380A9
:1075F0002800019A0749FEF705FF0422211D0F20EC
:1076000001F0C6F92800FEF719FF20003EBDC04674
:107610002C43002000127A0007B5002104480B001B
:107620000A00009102F0C0FD024802F0B5FD07BD5E
:107630008045002088450020037C072200209A42D4
:107640004041C0B270470120484070470800704771
:10765000036810B55B6C984701235840C0B210BD59
:107660004182704713B56B460268D971073354687D
:1076700019000122A04716BD037C0A7C002093421A
:1076800005D1072B03D807229A424041C0B2704768
:1076900070B50400007C0025072816D800F0FEFD18
:1076A00001001439FB220B00134011420CD02B00B7
:1076B000A84209D001331C2806D1236820001B6989
:1076C0009847431E9841C3B21D00280070BD0000BA
:1076D000F0B593B0040006A80F00150002F05CFDA1
:1076E00000230A93FA239B000B931A4B0EA80993CD
:1076F00002F052FD082211AB1A7002A802F04CFDF4
:10770000207C072808D800F0C9FD002802D0207C82
:1077100000F038FE082323740F4B104E5B6804A959
:1077200006A8019305930496FFF7B5FC39000C4BAE
:1077300002AA06A8FFF74CFE002809D0039A236886
:107740000192DB692000059204962A0004A998475B
:1077500013B0F0BD1C290100884500206C310100E8
:107760008813000010B5037C0020072B02D81800F6
:1077700000F082FF10BD70B5802504002D01207C33
:1077800007280AD800F08AFD172801D01C2804D148
:10779000207C00F071FFA842F1D370BD70B50500E8
:1077A000007C1400072806D892B200F0F7FE0028EB
:1077B00002D101236B600024200070BD10B5037C52
:1077C0000020072B02D8180000F090FE10BD10B565
:1077D000037C0020072B03D8180012B200F0EAFD4A
:1077E00010BD13B56B46DC1D01222100007C00F0AA
:1077F000E1FD002801DD207816BD01204042FBE7B5
:1078000010B5037C0400072B02D90120404210BDB3
:1078100003681B6998470028F7D0207C00F096FE8B
:10782000F5E770B50400007C07280BD800F0AAFD2E
:1078300004F0D4FB0500207C00F030FD002802D1CC
:107840000823237470BD012004F0FEFB04F0C6FB86
:10785000628A401B9042EED3207C00F037FDEFE7B8
:107860007FB50400007C0D001600072808D800F042
:1078700015FD002802D0207C00F084FD082323742D
:107880000021684602F09EFC6B68019A934202D187
:10789000002004B070BD012102A8494202F092FC10
:1078A0006B68039A9342F3D00021212000F0C6FBBD
:1078B00020740728ECD8291D320000F041FD04F0A7
:1078C0008DFB0500207C00F0E9FC172813D01C2854
:1078D00011D00028DCD004F081FB638A401B984261
:1078E00003D8012004F0B0FBECE7207C00F0EEFCB4
:1078F00008232374CCE70120CBE7000010B50C006F
:1079000011001A00044B00021B781B02E418201817
:1079100080B201F03DF810BD7C46002073B5037CB9
:1079200006000024072B16D86B460C490C4D00911D
:107930009C802800019AFEF765FD02236A46042117
:10794000307CFFF7DBFF6B461C785B782402280055
:107950001C43FEF773FD200076BDC04600127A007E
:107960002C43002073B50B7C04000D00072B04D9B9
:10797000002102F027FC200076BD00236A460B4957
:107980000B4E009193803000019AFEF73BFD0423DB
:107990006A460C21287CFFF7B1FF3000FEF74EFD50
:1079A0006946200002F016FCE5E7C04600127A00A6
:1079B0002C43002073B5037C06000024072B16D847
:1079C0006B460C490C4D00919C802800019AFEF7F3
:1079D00019FD02236A461021307CFFF78FFF6B46AA
:1079E0001C785B78240228001C43FEF727FD20004A
:1079F00076BDC04600127A002C43002007B5002156
:107A000003480B000A00009102F0CEFB07BDC04600
:107A10000046002013B56B460268D97107335468DD
:107A200019000122A04716BD70B50500018921206B
:107A300000F004FB0400072807D800F05FFC0028D2
:107A400004D02A89034B6400E25270BD200000F08C
:107A500099FCFAE710460020F8B50D4B06001B789C
:107A60000827332B00D1043F00240A4D2A8833898C
:107A70009A4206D00134E4B20235A742F6D1002082
:107A800005E0200000F00AFC1428F3D11338F8BDFB
:107A90008446002010460020F0B52D4B04001B78D2
:107AA0000F0085B0002B0BD12A4A4360FA230260F5
:107AB00008229B00836020002274638205B0F0BD21
:107AC00008220392332B01D12F3B0393224B002535
:107AD0000093082301950293009B1A883B899A42E0
