:1020000000800020F18C0000DB8C0000DB8C0000E5
:1020100000000000000000000000000000000000C0
:10202000000000000000000000000000DB8C000049
:102030000000000000000000DB8C0000458D000067
:10204000DB8C0000DB8C0000DB8C0000DB8C0000F4
:10205000DB8C0000DB8C00008D360000DD8C000086
:10206000DB8C0000356E0000DB8C0000DB8C000098
:1020700059320000DB8C0000456E0000DB8C000054
:10208000DB8C0000DB8C0000DB8C0000DB8C0000B4
:1020900000000000DB8C0000DB8C0000DB8C00000B
:1020A000DB8C0000DB8C0000DB8C0000DB8C000094
:1020B0000000000010B5064C2378002B07D1054B1B
:1020C000002B02D0044800E000BF0123237010BDA4
:1020D000C00200200000000084010100044B10B584
:1020E000002B03D00349044800E000BF10BDC046E8
:1020F00000000000C40200208401010030B503008C
:1021000000780822C0433124C0B2410045B220000B
:102110004840C0B2002D11DA013A002AF5D15B78AF
:10212000312158400823420044B208005040C0B258
:10213000002C05DA013B002BF5D130BDC8B2EBE72E
:10214000D0B2F7E70023044A03720361C160026062
:10215000426043637047C0460000C07F10B5040072
:102160000069002801D006F07BFE200010BD1FB5DD
:102170000B0003A95BBA0B8000230193009302229A
:102180000133006900F03DFE05B000BD37B5040025
:1021900001AD0649FFF7EBFF290001230322206967
:1021A00000F078FE288840BA80B23EBD2DF30000D2
:1021B00010B50349FFF7DBFF0A2006F007FE10BD4C
:1021C000A230000070B5040000690E00002801D0A4
:1021D00006F046FE102006F03FFE05003100E268E2
:1021E00000F0E4FD01212800256100F0FCFD00283D
:1021F0000AD02000FFF7DCFF2000FFF7C7FF034BEA
:10220000C018431E9841C0B270BDC0460100FFFF18
:10221000F0B50E00E021040085B009020192FFF73D
:10222000A6FF01230622206902A900F033FE051E45
:1022300000D180E002AB18009F78FFF75FFF874274
:1022400000D07BE002ABD81C5F79FFF757FF8742D5
:1022500000D073E002AB18785B780002C3183848EE
:102260005843384B8013C01808F0BAF9364907F0C4
:10227000D5FC02AB60603060D8781B790002C318CF
:1022800032485843000B08F0F1F92F4907F0C6FC1B
:10229000019B20601860E169061C07F0E3FA002842
:1022A00003D02300012236331A70216A301C07F054
:1022B000C5FA002803D02300002236331A7067685D
:1022C0006169381C07F0CEFA002803D023000122F0
:1022D00034331A70A169381C07F0B0FA002803D013
:1022E0002300002234331A70E16A301C07F0A6FA8A
:1022F000002803D02300012237331A70216B301CD1
:1023000007F0B0FA002803D02300002237331A70F8
:10231000616A381C07F092FA002803D023000122DA
:1023200035331A70A16A381C07F09CFA002802D0D5
:10233000002335342370280005B0F0BD0025FAE7EE
:10234000171100006CEEFFFF0000C8427102000090
:10235000F0B50700102285B014300C000AF0A2F886
:102360003B7A012B5DD13849206807F0BBFA374929
:1023700007F054FC364907F01BFE07F07DFA32499E
:1023800085B2606807F0AEFA304907F047FC304983
:1023900007F00EFE07F070FA2D4986B2A06807F02C
:1023A00007FE2C4907F03AFC07F066FA430A5B0285
:1023B000E0682749ED111D4307F0FAFD254907F0B4
:1023C0002DFC07F059FA440A234BF61164023443FA
:1023D00002AE33800A232DB26B446DBA75801800AB
:1023E000FFF78CFE0025307131000522012338698A
:1023F0000195009500F005FD184B24B233800A23A7
:1024000064BA6B4418007480FFF778FE01233071C2
:102410000522310038690195009500F0F2FC05B005
:10242000F0BD0F49206807F05DFA0E4907F0F6FB92
:10243000074907F0BDFD07F01FFA094985B260683A
:1024400007F050FA0749A0E70000444200809D438E
:1024500000FF7F470000C842611D000061100000BE
:102460000000344200002F43F0B50700102285B071
:1024700024300C000AF016F83B7A012B5DD1384964
:10248000206807F02FFA374907F0C8FB364907F0F4
:102490008FFD07F0F1F9324985B2606807F022FA42
:1024A000304907F0BBFB304907F082FD07F0E4F943
:1024B0002D4986B2A06807F07BFD2C4907F0AEFBE2
:1024C00007F0DAF9430A5B02E0682749ED111D4382
:1024D00007F06EFD254907F0A1FB07F0CDF9440A8E
:1024E000234BF6116402344302AE33800A232DB22B
:1024F0006B446DBA75801800FFF700FE002530713F
:1025000031000522012338690195009500F079FC1E
:10251000612324B23380573B6B4464BA1800748043
:10252000FFF7ECFD01233071052231003869019578
:10253000009500F066FC05B0F0BD0E49206807F07C
:10254000D1F90D4907F06AFB074907F031FD07F0A3
:1025500093F9084985B2606807F0C4F90649A0E715
:102560000000444200809D4300FF7F470000C842B6
:10257000610B00000000344200002F4310B5102210
:10258000243009F08FFF10BD10B51022143009F06F
:1025900089FF10BD1FB5064B03A90B8000230193D3
:1025A000009302220133006900F02BFC05B000BD4E
:1025B000212D0000343000787047353000787047A6
:1025C000363000787047373000787047F7B5E12132
:1025D000434C4902200005F075F9200005F074F91C
:1025E0000028FAD03F4800F0A3FF0121002006F0A8
:1025F0009FFD0121080006F09BFD0121022006F04D
:1026000097FD0121032006F093FD0023364D374E40
:102610002B60374B374F6B60374B384AAB603360BA
:10262000374B44217360374B3800B360364BEA6058
:10263000F360FFF7C7FD31003800FFF789FE29007E
:102640003800FFF711FF0E213800FFF7A3FF02212A
:10265000082006F06DFD01210A2006F069FD0A2020
:1026600001F040FFFA2229491201294801F0B6FE83
:1026700001F048FF002807D12000264904F0C2FCE1
:10268000012006F0A3FBFBE701F032FF022803D193
:102690002000214904F0B6FC204802F06DF92049E1
:1026A000200004F095FC684601F03AFF69462000DE
:1026B00004F0B2FC1B4CFF21200003F03BFD042280
:1026C0000021200003F021FC04222000110003F06F
:1026D000D9FB10220821200003F0F5FBF7BDC0460E
:1026E0002C100020FC050020DC0200202803002024
:1026F0000000A0408C0300200000F04100000C42CC
:102700000000C8410000B4420000AA4260EA000094
:102710000400002014F100005AF1000080030020A2
:102720007BF1000044030020F7B5184C1849200045
:10273000FFF708FD20000024164E1749320006F06E
:1027400087FE2100230022000094144804F0F6FBC9
:10275000FB22134B134D144F52001D605C601A8115
:10276000380003F0D9FC32003800104906F070FE42
:10277000B123A8220093C021B03B0D4804F0DEFB3A
:1027800050220C4B1D605C601A81F7BD8C03002049
:10279000C8030020000000205D2100001403002079
:1027A0001C03002008F4000044030020B160000076
:1027B0003C03002080030020F0B591B006AC20005F
:1027C000EA4902F011F9237C072B45D8E84FE94983
:1027D000380004F017FC0126200001F0FAFE002862
:1027E00030D0200001F08AFF0028F5D0200001F051
:1027F00098FFC5B22900380004F0CCFF0A2D00D0A4
:102800003DE2002EE7D0DC49200004F0FBFBDB4971
:10281000200004F0F7FBDA49200004F0F3FBD9496B
:10282000200004F0EFFB200004F0E4FBD649200078
:1028300004F0E8FBD549200004F0E4FB2000D44973
:1028400004F0E0FB012006F0C1FA200001F08FFF48
:102850003800D04904F0D6FBCF4BD04A1B68D04D8E
:102860000393039B002113801B0C5380CD4B280046
:102870001B680393039B93801B0CD380042303F0FA
:10288000B9FBC94E3000FFF795FE04210200280075
:1028900003F0A6FB3000FFF790FE052102002800A0
:1028A00003F09EFB3000FFF78BFE0621020028009C
:1028B00003F096FB3000FFF786FE07210200280098
:1028C00003F08EFBB94F30003900FFF75DFE30009A
:1028D000B749FFF753FE3E680821B2B2280003F063
:1028E0004DFB320C0921280003F048FB7E680A21C9
:1028F000B2B2280003F042FB320C0B21280003F097
:102900003DFBBE680C21B2B2280003F037FB320C4D
:102910000D21280003F032FBFE680E21B2B2280020
:1029200003F02CFB320C0F21280003F027FBA04BF7
:1029300010211E682800B2B203F020FB320C1121D6
:10294000280003F01BFB9A4B12215E682800B2B2EC
:1029500003F014FB320C1321280003F00FFB944BFF
:1029600014219E682800B2B203F008FB1521320C36
:10297000280003F003FB8E4B1621DF682800BAB253
:1029800003F0FCFA172128003A0C03F0F7FA2000B4
:1029900001F01FFE002800D176E1280003F0B1FB12
:1029A0000821280003F0D4FA092186B2280003F098
:1029B000CFFA3F0C3F043E4300047E4FB6B20643BD
:1029C0000A2128003E6003F0C3FA360C80B23604B8
:1029D0000B210643280003F0BBFAB6B200040643FD
:1029E0000C2128007E6003F0B3FA360C80B2360466
:1029F0000D210643280003F0ABFAB6B200040643EB
:102A00000E212800BE6003F0A3FA360C80B2360413
:102A10000F210643280003F09BFAB6B200040643D8
:102A200010212800FE6003F093FA360C80B23604C1
:102A300011210643280003F08BFAB6B25E4C000465
:102A4000064312212800266003F082FA360C80B279
:102A5000360413210643280003F07AFAB6B20004C4
:102A6000064314212800666003F072FA360C80B227
:102A7000360415210643280003F06AFAB6B20004B2
:102A8000064316212800A66003F062FA360C80B2D5
:102A9000360417210643280003F05AFAB6B20004A0
:102AA00006430396039B3E68404DE3602968301C53
:102AB00006F0B4FE002400280DD14049301C06F079
:102AC000D1FE041E07D03E49301C06F0B7FE041E9E
:102AD00001D001242E607E686968301C06F09EFEDD
:102AE00000280DD13549301C06F0BCFE002807D067
:102AF0003349301C06F0A2FE002801D001246E608C
:102B00002C4BA9689E68301C06F088FE00280DD169
:102B10000021301C06F0A6FE002807D02949301CF1
:102B200006F08CFE002801D00124AE60214BE9683C
:102B3000DE68301C06F072FE00280DD10021301C2A
:102B400006F090FE002807D01E49301C06F076FEE5
:102B5000002801D00124EE60174B154F1E6839681C
:102B6000301C06F05BFE00283CD12DE080030020E5
:102B70002C10002089F1000094F10000A4F1000065
:102B8000BCF10000CEF10000D9F10000E9F1000035
:102B9000F0F10000F8F10000C4030020FC02002066
:102BA00044030020380300208C0300202803002069
:102BB000DC020020EC020020040300200000A0C181
:102BC000000048430000C8426949301C06F04AFE34
:102BD000002807D06749301C06F030FE002801D0DD
:102BE00001243E60644B654F5E687968301C06F0D6
:102BF00015FE00280DD15E49301C06F033FE00287A
:102C000007D05C49301C06F019FE002801D00124D1
:102C10007E60594B594F9E68B968301C06F0FEFD26
:102C200000280DD10021301C06F01CFE002807D022
:102C30005349301C06F002FE002801D00124BE607A
:102C40004E4F0398F96806F0E9FD4E4E002829D151
:102C50000021039806F006FE002823D04849039877
:102C600006F0ECFD00281DD0039BFB60290030001E
:102C7000FFF76EFB30004149FFF7F6FB14E00D2D26
:102C800000D1A9E50026A7E50BAC20003E4901F0E4
:102C9000ABFE237C072B00D982E62100280003F03D
:102CA00068FA7AE6002CE1D130000BAA05A9FFF7FB
:102CB000AFFA002834D0059D291C281C07F05AFCC7
:102CC000324C00284AD1324B324920001D6004F0BA
:102CD0007FF92F4B186809F0EDFA0B000221020072
:102CE0000091200004F08EFA20002B4904F070F9C6
:102CF0000B9D291C281C07F03DFC002833D1274BD5
:102D0000274920001D6004F063F9244B186809F07E
:102D1000D1FA0B00022102000091200004F079FAA0
:102D20003000FFF747FC0100002006F031FA3000C8
:102D3000FFF743FC0100012006F02AFA3000FFF7FC
:102D40003FFC0100022006F023FA3000FFF73BFCB5
:102D50000100032006F01CFA11B0F0BD200011495B
:102D600004F050F9C4E720000F4904F04BF9D7E70D
:102D70000000A0C10000484304030020DC02002042
:102D80000000C8428C0300201C0300202C100020EF
:102D9000C40300200CF2000017F2000038030020EA
:102DA00035F200001AF200003FF200000023037227
:102DB000FA3301704260C360704710B5037A0400B3
:102DC000002B0AD02178606800F0FCF8606800F001
:102DD000AAF943425841C0B210BD012100F003F8E6
:102DE0000028EFD1F8E770B5040040680D0000F04E
:102DF000C9F801202072002D02D02000FFF7DDFF6E
:102E000070BDF8B51E00079B1500D318C2680400FA
:102E10000F00934201D90020F8BD0178406800F00E
:102E2000D1F8079B002B0FD160682A000368390096
:102E30005B6898478542EED13100606800F03BF94D
:102E400043425841C0B2E7E7069B002BECD06068D4
:102E5000079A036806995B689847079B9842DAD1FE
:102E6000E2E7F8B505000F0016000178D2B240681D
:102E700000F0C0F8002486420AD1A64207D968684B
:102E800003685B69984738550134A4B2F5E701241B
:102E90002000F8BDF7B5070016000024009101934B
:102EA000B44213D2FB68351B9D4200D91D00019B23
:102EB000721BA24200D90023009A380011192A007F
:102EC000FFF7CFFF002802D06419E9E70120FEBD1B
:102ED00000207047F8B505000E0017000024BC4222
:102EE00008D02B682800315D1B689847002801D066
:102EF0000134F4E72000F8BD70470300FC33196A81
:102F0000DA69914203D01B6AC018007E7047012025
:102F10004042FBE70300FC33D8691B6AC01A01D5A5
:102F20000130FF3070470000F7B50193FA23802786
:102F3000002504009B008360114B7F0008330E00C6
:102F400045602900009203603A00183009F0B3FA96
:102F500023002000FC332130DD613A001D6229008E
:102F6000FF3009F0A8FA87239B00E3185D609D609D
:102F7000009B20002375019B2661A5756375FEBD2E
:102F800058F2000070B5040018260C49006904F0DE
:102F9000D5FB206904F02EFA33000821207D084D6E
:102FA0004343EB18595606F01FF90821607D46434C
:102FB000AD19695606F018F970BDC046A08601002B
:102FC00010F800008A2300229B00C1540C3BC31858
:102FD0005A609A600123837570470200FC3253687F
:102FE00010B501339468DBB29C4202D0546801559D
:102FF000536010BDF7B501930023040015001800BD
:103000009A422FD02200FC32D36120691362012240
:1030100004F02EFA002826D02700206904F0AAFA2E
:10302000183701003800FFF7D8FF01262069B542A4
:103030000ED004F0FDF90221206904F003FA2069A2
:1030400004F098FA01003800FFF7C7FF0136EDE7FA
:1030500004F0E5F9019B002B03D00321206904F063
:10306000F1F9E8B2FEBD0500FBE710B50300827D73
:10307000002082420ED0872292009C186268A468C9
:103080000132D2B2A24205D02133FF331800FFF73C
:10309000A4FF012010BD0300FC3399685A689142D7
:1030A00006D09A68805C9A680132D2B29A60704702
:1030B00001204042FBE700228A2370B59B00827505
:1030C00005000E00C15C006904F0D2F9002806D1A9
:1030D0000321286904F0B6F90224200070BD87237B
:1030E00028009B00EA18536894682130FF301C1BAD
:1030F00001D50134FF34002C0ED02C69FFF7CBFF33
:10310000C1B2200004F0F2F90028E8D103212869B7
:1031100004F098F90324E0E7002EDED003212869AB
:1031200004F090F9D9E710B50121FFF7C4FF10BDF5
:1031300010B51830FFF7AFFF10BD70B5040000697F
:1031400004F0F6F9002814D0206904F0FFF90028F3
:1031500010D0206904F06CF90321206904F072F9A1
:103160008C239B00E558002D39D10023FC34E3610A
:10317000236270BD206904F0F3F9002809D02069AA
:1031800004F0E9F9002804D0206904F0EEF90028E1
:10319000DFD0206904F0E4F9002826D1206904F08A
:1031A000D0F90028E5D0206904F0DFF9002837D0F5
:1031B00087239B00E218536892689B1A01D501335C
:1031C000FF33FF21002B05D020002130FF30FFF717
:1031D00062FFC1B2206904F09CF9A075C9E72368B9
:1031E00020001B699847A847BFE7206904F020F931
:1031F0002069032104F026F9206904F0B6F90028BB
:10320000B7D0872300229B00E3185A609A600123FD
:10321000A3758B239B00E3589342AAD09847A8E755
:103220002200FC32D369126A0133DBB22069934277
:1032300006D104F0F4F80321206904F003F998E7BB
:1032400004F098F9010020001830FFF7C6FE20694D
:1032500004F0EEF8EFE7000010B50248FFF76DFF4D
:1032600010BDC046C803002010B515231422024922
:103270000248FFF759FE10BD20100020C8030020AF
:1032800010B500F04FFB0022024B8000C3584933B9
:103290001A7010BD50060020F0B5040085B01E0065
:1032A0000AAB1B78103001930BAB1B78170002930D
:1032B0000CAB1B780D00039300F0B6F9200024300E
:1032C00000F0B2F9220000234832A363E3632364D1
:1032D00063641370537063729D4205D12721084BBC
:1032E000084A094809F04CF82000019B25606371E9
:1032F000029B2771E371039BA671237205B0F0BD99
:103300007CF200008DF20000E1F2000030B5040014
:1033100085B002AD00680291039204F027F86B7942
:10332000227AE17920680093002304F0DDF92979FD
:10333000029A206804F03EF8206804F00DF805B009
:1033400030BD000007B5837A00910192002B07D0B1
:103350009A070AD5EFF310835A425341C37272B6EB
:103360000099019AFFF7D2FF07BDDB07F8D5C368C4
:10337000014A9BB29360F3E700180040837A002B68
:1033800005D09A0704D5C37A002B00D062B67047E7
:10339000DB07FCD5C368024A9BB2D360F7E7C0469F
:1033A0000018004010B5006803F0E9FF10BD70B5CB
:1033B00005000C008E18B44206D021782800FFF7D3
:1033C000F1FF20700134F6E770BD000010B5006811
:1033D00004F0DEF803000020834203DB0C3043439B
:1033E000014A985810BDC04648F3000010B5006867
:1033F00004F0CEF8002805DB0C2343430348C01833
:10340000406810BD01204042FBE7C04648F3000081
:1034100010B5006804F0BCF8002805DB0C2343431A
:103420000348C018806810BD01204042FBE7C04639
:1034300048F30000F0B506001036050089B03000F2
:1034400000F048F900286CD12F002437380000F034
:1034500041F9041E62D12800FFF7DAFFC1B2300043
:1034600000F018FA0221300000F038FA01222E494B
:10347000300000F00BFA300000F054FA2B4B8000C3
:10348000C5502800FFF7B2FFC1B2380000F002FAC1
:103490000221380000F022FA380000F043FA234BF2
:1034A0008000C5502800FFF791FF01230100220092
:1034B000029330002300049403940194009400F0DC
:1034C00033FAA8632800FFF781FF012302002100DF
:1034D000019338002300049403940294009400F0B4
:1034E00023FAE863402008F0BBFF2A004832286432
:1034F000079200280BD00123137068646B6C1022B4
:103500001819E96B103408F0CDFF402CF6D1079B59
:103510001B78002B05D1380000F076F9300000F060
:1035200073F909B0F0BDC04681320000500600209A
:1035300070B5437A0400002B03D10122438142720B
:10354000C360230048331B78002B02D12000FFF713
:1035500071FF18263300082120790D4D4343EB18E5
:10356000595605F041FE33000821A0794343EB187A
:10357000595605F039FE082160794643AD19695660
:1035800005F032FE034B200006CBFFF7BFFE70BDF7
:1035900010F80000480600201FB5094A094B0A49E7
:1035A0001360002393800293013301931633009339
:1035B000162201330548FFF76FFE05B000BDC04677
:1035C0004806002000093D0024100020FC050020D2
:1035D000084B1968002909D1EFF31080064A00282A
:1035E00003D172B6BFF35F8F013111701A680132D7
:1035F0001A6070470808002004080020084B1A6869
:10360000002A0CD01A68013A1A601B68002B06D1F8
:10361000044B1B78002B02D0BFF35F8F62B670475C
:103620000808002004080020FF2310B50370C02301
:10363000002104009B004170418083800C220830EF
:1036400008F039FF200010BD01230A0010B51A4010
:10365000194208D00C4A1370033343708368002B5F
:1036600000D0984710BD0223194204D006490B70C0
:10367000C3684270F3E704231942F3D0024A13707F
:10368000033343700369EAE74E48004110B5FFF782
:103690009FFF0C4B1B8C1B071B0F0B2B0FD80A4AD1
:1036A0009900885800280AD00F2408490A78A243B4
:1036B00013430B70064B1978C9B2FFF7C5FFFFF72C
:1036C0009DFF10BD004800410C0800203F4800410C
:1036D0004E480041F8B500230278050018000B2A77
:1036E00077D93C4E2B702B780B2B07D801229A40B0
:1036F0003168114204D001332B70F4E7012068E0F7
:10370000FFF766FF3768344C002F2BD12022334B54
:10371000334859690A435A611022D9690A43DA6168
:10372000022223883900934323802388013A1343DC
:1037300023802C4B6063BF32A36308F0BCFEC02221
:103740003900284808F0B7FE4022C120264B8000EF
:103750002380264B26491A601A581140C0221204B1
:103760000A431A5001231A00297830688A4002431C
:1037700032600F261F4A880085501F48314002786A
:10378000B2430A43027002201C4A1178814311702F
:10379000117819431170297822698B409A4322616C
:1037A00060223F21636C934363642A79636C0A400F
:1037B000134912020B400321134363646A79636C5B
:1037C0000A40104992050B4013436364FFF716FF4C
:1037D0000020F8BD0008002000480041000400401F
:1037E0004007002080060020020F000000E100E0FA
:1037F000FFFF00FF0C0800203F4800414048004107
:10380000FFC0FFFFFFFF3FFF70B50500FFF7E0FEC1
:103810006B785CB2062B2BD02B7802240B2B27D88D
:1038200001229A40144B1968114221D01968914322
:1038300019601B68002B14D14022104BDA67BFF3CC
:103840004F8FBFF36F8F21000D4A0E311388A343B2
:1038500013800C4BDA698A43DA615A6910318A4362
:103860005A6100242B78084A9B009C50FF232B7040
:10387000FFF7C4FE200070BD0008002004E100E056
:1038800000480041000400400C0800200232920071
:1038900011507047037870B505000C0001710B2BB7
:1038A00014D8FFF795FE29780F2509482940037899
:1038B000084AAB430B4303703F23516C1C40064B3B
:1038C000240219400C435464FFF798FE70BDC046B3
:1038D0003F48004100480041FFC0FFFF037870B53A
:1038E00005000C0041710B2B14D8FFF771FE2978ED
:1038F0000F25094829400378084AAB430B4303705E
:103900000323516C1C40064BA40519400C4354641E
:10391000FFF774FE70BDC0463F48004100480041BB
:10392000FFFF3FFF00787047F0B587B001930CAB05
:103930001E780DAB1B78050002930EAB1B78007848
:10394000039310AB1F78049105920B2802D9002035
:1039500007B0F0BD6B78062BF9D0AB78002B00D107
:1039600079E01021080008F071FD0028EFD02B78D5
:103970003B4A1B019B181A00D168002904D0D1686A
:103980008B4201D0D268F7E7D06001220223AA70EF
:10399000964203D0DB18022E00D0130006240188C3
:1039A000114301800188A143018001881234A143A1
:1039B0000180153C018826402A4C360221400E43E6
:1039C0000680029E0188284C16402140B6020E4314
:1039D0000680039E0188254C16402140F6020E43C6
:1039E00006800188224E3A40314012030A430721E3
:1039F00002800F9A114002884903D204D20C0A4374
:103A000002806A4692884280049A4260029A002AA2
:103A100008D0019A41685A43002F01D00F9CA24060
:103A20008A184260059A8260039A002A09D0019A96
:103A300084685A431300002F01D10F9A9340E31872
:103A400083600023EA789A4203D02B78044A1B0152
:103A50009B18C3607CE7024B0001C01895E7C04685
:103A600040070020FFFCFFFFFFFBFFFFFFF7FFFF0A
:103A7000FFEFFFFF10B514220021103008F01BFDEE
:103A800010BD10B50400103103F06EFA200010BD17
:103A900010B50400143103F067FA200010BD10B512
:103AA0000400183103F060FA200010BD10B50400C6
:103AB000203103F059FA200010BD302030B50F2519
:103AC0004B1C08701000010029400C00120937340B
:103AD000092901D830310C00013B5C700F28F1D866
:103AE00030BD000007B5002103480B000A0000911B
:103AF00003F024FA07BDC0463C080020F0B50400DE
:103B000091B0039115000021202208A808F0D3FCF1
:103B1000FF2126000B000A00009104A803F00EFA12
:103B20004B4B48360693059B4322300006A902936F
:103B3000079301F079F8431C00D186E0454B6DBA3C
:103B40000893636827001BBA099302AB1D84802386
:103B500002AA538408A91C22300001F074F8083727
:103B60001C22002109A808F0A6FC0622390008A89A
:103B700008F098FC102208A9300001F064F8202217
:103B8000002108A808F097FC0623029308AD202224
:103B90002900300001F057F8029B013B0293002BF3
:103BA000F4D12D4B222008933623FF33AB80039BA7
:103BB0000622AB713D23EB710823FF332B8102AB4F
:103BC0003900C01808F06EFC2A20244B24492B82AF
:103BD00002ABC01809F09CFB2000E27A0EA9FFF7A7
:103BE0006CFF322102ABC9182000227BFFF765FF72
:103BF0002000627B0FA9FFF760FF1E222900300022
:103C000001F021F8039B032B0ED1164B0C222B80C5
:103C1000238A29006B80638A3000AB80124BEB80D3
:103C2000E3690A9301F00FF8104B20210893104B21
:103C300002AA0993FF23521813703000092208A921
:103C400001F001F8300000F0F8FF11B0F0BDC046FF
:103C500068FC000001010600638253630C0C000045
:103C600090F3000032040000360400003706010320
:103C7000060F3A3BF0B593B005000E00170005F0B3
:103C80006FF801902C004834200001F049F800281A
:103C90000ADC05F065F8019BC01AB04200D9D3E0F8
:103CA000322005F093F8EDE709AE24223100200020
:103CB00000F0EEFF3378022B00D0BDE02900002297
:103CC000A38B08310192432B00D0B7E00A9B063248
:103CD0001EBA3E6010A808F0D7FB002805D12B685B
:103CE0009E4202D36B689E4205D9200000F03AFF45
:103CF00000230193A5E0280004220DA9103008F04C
:103D0000D1FBCC220021200000F0C2FF200000F0F7
:103D10001DFF002800DC91E0200000F0A2FF3B28FE
:103D200019DC322807DC06280FD9200000F099FFA3
:103D3000FF220240E6E733380828F6D805F090FB6A
:103D40006EF50E34F5F5F554610005F089FBDF10D2
:103D5000EE17EEEE2500FF28D8D0E6E7200000F0B1
:103D600080FF200000F07DFFC3B20193CEE720006A
:103D700000F077FF290004221431C4E7200000F08E
:103D800070FF2900060004221831200000F080FF97
:103D9000FF231E40321FB5E7200000F062FF29001C
:103DA000060004222031F0E720002F0000F059FF28
:103DB0001C373900060003A803F0D6F8002105A837
:103DC00003F0CAF8049B069A93420AD0390007A868
:103DD00003F0CAF82B6E089A934202D0FF223240B9
:103DE00090E7042239008EE7200000F03AFF290016
:103DF00004222000283100F04BFFAB6A1BBAAB62F3
:103E000084E7200000F02DFF2900042220002C313F
:103E100000F03EFFEB6A1BBAEB6277E7200000F090
:103E200020FF290004222000243100F031FF6B6ABA
:103E30001BBA6B622B6369E700230193200000F03B
:103E400091FE019813B0F0BDFF2352E7F0B5FA21BF
:103E5000040085B0C9000120270004F033FF483773
:103E600060602060380000F07EFE4421380000F0E1
:103E700084FE0026B04200D18AE004F071FF009079
:103E80000026250044352B78032B78D0002B12D147
:103E900063680133636004F063FFFA21009B8900CB
:103EA000C01A05F0FBFA012182B22000FFF726FEBE
:103EB00001232B705AE0042B11D163680133636036
:103EC00004F04EFFFA21009B8900C01A05F0E6FAC3
:103ED000032182B22000FFF711FE0223E9E7012B44
:103EE00019D12000E16B03AAFFF7C4FE0300019083
:103EF000022839D1039B636004F032FFFA21009B52
:103F00008900C01A05F0CAFA032182B22000FFF727
:103F1000F5FD019BCDE7022B28D12000E16B03AA20
:103F2000FFF7A8FE030005281AD103232B70636A4C
:103F3000002B02D1E1239B006362A36A002B02D114
:103F4000636A5B08A362E36A002B03D1636ADA0841
:103F50009B1AE362A36A01262363E36A636390E723
:103F6000062801D10023A4E7FF2BFBD0012E88D027
:103F700004F0F6FE009BC01AA36B984280D938006B
:103F800000F0F1FD63680133636004F0E9FE206432
:103F9000300005B0F0BDF7B5060000250627040087
:103FA0000836C36345628562C56201918263290058
:103FB0003A00300008F07FFA2000FFF75BFD3A007E
:103FC0003000019908F06EFA230044331D70200080
:103FD000FFF73CFFFEBD4B68436000230381704741
:103FE00070B500240A2523000878002816D00600A2
:103FF000303E0131092E07D86B43303B1B189BB272
:10400000FF2BF1D900200DE02E28FBD1032CF9D095
:10401000601C141923710023C4B2E5E7032C01D1FD
:104020000120D37170BD000007B5002103480B00CB
:104030000A00009102F082FF07BDC046440800203C
:10404000F0B5050085B02C000F0004F089FE2900B2
:104050000C34022228810831200000F0F4FD0123F5
:1040600002AAD38002AB991D0222200000F0EBFDD2
:10407000802302AA5B00D38002AB991D022220009C
:1040800000F0E1FD002302AAD38002AB991D0222B9
:10409000200000F0D8FD02AB991D0222200000F0A4
:1040A000D2FD02AB02222000991D00F0CCFD3E00A3
:1040B0003B78002B1AD035002B782F000135002BD0
:1040C00001D02E2BF8D1BB1B0193002B0CDD02ABD2
:1040D000591D0122BB1B20000B7000F0B4FD310004
:1040E0002000BA1B00F0AFFD2E00E1E7802502AAF8
:1040F000511D200001220B7000F0A5FD02AB6D00E8
:10410000991D02222000DD8000F09DFD02AB0222FD
:104110002000991DDD8000F096FD012005B0F0BD66
:10412000F0B589B005000F00019204F019FE0600F9
:104130002C000C34200000F0F3FD002809DC04F012
:104140000FFE801BB84200D9C9E0322004F03EFEC9
:10415000EEE76B6A6A68934200D0C2E02B8D352B84
:1041600000D0BEE0200000F0F1FC0B2800DCBAE03B
:1041700005AE0C223100200000F08AFD728802A9F1
:104180001302120A13431AB29BB2CB8028893188DA
:10419000884201D1002A06DB200000F0E3FC534EE8
:1041A000300009B0F0BD1F00514A1740134204D03F
:1041B000200000F0D7FC4F4EF2E7F3883D001A02D2
:1041C0001B0A13439BB20093002B1FD1200000F069
:1041D000C9FC494EE4E70021200000F059FD02AB84
:1041E0009B7A002B0BD00A2302A95B18012219002D
:1041F000200000F04DFD02AB9A7A002AEBD1042298
:104200000021200000F044FD0135ADB205AB9B88D4
:104210005BBA9BB2AB42E6D8022502AB5E1D01221F
:104220003100200000F034FD32783F231100994323
:1042300037D1002A05D0200000F02AFD3378002B6A
:10424000EBD104AE2A003100200000F021FD0A234A
:1042500002A95B1819002A00200000F019FD0422B1
:104260000021200000F014FD02AB991D2A0020005F
:1042700000F00EFD33885BBA9BB2012B19D002AB64
:10428000DA88002152BA200092B200F001FD013715
:10429000009BBFB2BB42C0D1200000F063FC174EB0
:1042A0007EE701220021200000F0F2FC00233370A1
:1042B000C7E702AB5E8976BAB6B2012EDFD1DA88E3
:1042C00052BA92B2042A04D0200000F04BFC0C4EEB
:1042D00066E701992000043100F0DAFC60E7094E3E
:1042E0005EE7094E5CE7094E5AE7C046FCFF000056
:1042F0000F020000FBFF0000FAFF0000F6FF0000C5
:10430000F7FF0000FFFF0000FEFF0000FDFF0000C0
:10431000F0B585B005000F0000920193FFF760FE35
:10432000041E2ED11D4B6A685B689A422BD004F0A4
:1043300017FD2E000F21802301400C36DB003000DA
:10434000C91800F01AFC012818D1154B3522029328
:104350006B68300002A9039300F066FC00280AD0C5
:1043600039002800FFF76CFE002804D0300000F070
:1043700064FC00280AD1300000F0F5FB200005B0F5
:10438000F0BD0124FAE702246442F7E72800009A0E
:104390000199FFF7C5FE0400EDE7C0464408002080
:1043A00068FC000010B501000422012001F0ECF9C6
:1043B00010BD10B501000422052001F0E5F910BD83
:1043C00010B501000622092001F0DEF910BD10B57C
:1043D000010004220F2001F0D7F910BDF0B53A4ECC
:1043E00089B03368012505921A00384C0390049176
:1043F0002A402B420ED1FA2320009B002365344B28
:10440000E264A3645C3002F091FD2300082268336B
:104410001A7035602F4D2C6001F074FB0024A0420F
:104420004FD02D4F04AB2D4E06979C813900079A33
:104430003000FEF787FF0398FFF7C2FF230022003A
:104440002100009406A802F079FD07A8FFF7BFFF3E
:104450003000FEF793FF059B049A03992868FFF745
:104460009AFD040001282CD1002204AB06979A8102
:10447000079A39003000FEF765FF296806A8FFF7A4
:1044800000FB07A8FFF7A3FF296806A8FFF707FBB3
:1044900007A8FFF787FF296806A8FFF7F9FA07A81A
:1044A000FFF787FF3000FEF769FF296806A8FFF7CE
:1044B000FDFA0B4B079A5A6004F058FC80B200F0EA
:1044C0005BFD200009B0F0BD4C080020640800200E
:1044D00028F400006008002000127A00FC0500208B
:1044E00058080020014B18707047C0460C0000208F
:1044F00010B501F083FB012802D0022800D0002073
:1045000010BD0000044B00201B78333BDBB2042BB2
:1045100001D8024AD05C70475409002097F300008C
:1045200037B5040002F002FD00236A46084D93806F
:104530002800019A0749FEF705FF0422211D0F20DC
:1045400001F0CEF92800FEF719FF20003EBDC0465D
:10455000FC05002000127A0007B5002104480B007A
:104560000A00009102F0EAFC024802F0DFFC07BDFD
:1045700050080020580800207047037C07220020C4
:104580009A424041C0B2704701204840704708003D
:104590007047036810B55B6C984701235840C0B260
:1045A00010BD4182704713B56B460268D97107335D
:1045B000546819000122A04716BD037C0A7C002024
:1045C000934205D1072B03D807229A424041C0B23B
:1045D000704770B50400007C0025072816D800F04D
:1045E00005FE01001439FB220B00134011420CD0D0
:1045F0002B00A84209D001331C2806D123682000D3
:104600001B699847431E9841C3B21D00280070BD26
:10461000F0B593B0040006A80F00150002F086FC68
:1046200000230A93FA239B000B931A4B0EA80993BD
:1046300002F07CFC082211AB1A7002A802F076FC92
:10464000207C072808D800F0D1FD002802D0207C6B
:1046500000F040FE082323740F4B104E5B6804A942
:1046600006A8019305930496FFF7B5FC39000C4B9F
:1046700002AA06A8FFF74CFE002809D0039A236877
:104680000192DB692000059204962A0004A998474C
:1046900013B0F0BD28F400005808002068FC0000AA
:1046A0008813000010B5037C0020072B02D81800E7
:1046B00000F08AFF10BD70B5802504002D01207C1C
:1046C00007280AD800F092FD172801D01C2804D131
:1046D000207C00F079FFA842F1D370BD70B50500D1
:1046E000007C1400072806D892B200F0FFFE0028D4
:1046F00002D101236B600024200070BD10B5037C43
:104700000020072B02D8180000F098FE10BD10B54D
:10471000037C0020072B03D8180012B200F0F2FD32
:1047200010BD13B56B46DC1D01222100007C00F09A
:10473000E9FD002801DD207816BD01204042FBE79D
:1047400010B5037C0400072B02D90120404210BDA4
:1047500003681B6998470028F7D0207C00F09EFE74
:10476000F5E710B5040004F07BFB200010BD70B528
:104770000400007C07280BD800F0ACFD04F0F0FA30
:104780000500207C00F032FD002802D108232374AC
:1047900070BD012004F01AFB04F0E2FA628A401BAB
:1047A0009042EED3207C00F039FDEFE77FB50400A6
:1047B000007C0D001600072808D800F017FD00281F
:1047C00002D0207C00F086FD082323740021684677
:1047D00002F0C2FB6B68019A934202D1002004B040
:1047E00070BD012102A8494202F0B6FB6B68039A32
:1047F0009342F3D00021212000F0C8FB2074072849
:10480000ECD8291D320000F043FD04F0A9FA0500A0
:10481000207C00F0EBFC172813D01C2811D00028B6
:10482000DCD004F09DFA638A401B984203D8012033
:1048300004F0CCFAECE7207C00F0F0FC08232374B1
:10484000CCE70120CBE7000010B50C0011001A00E6
:10485000044B00021B781B02E418201880B201F000
:104860003FF810BD4C09002073B5037C06000024FE
:10487000072B16D86B460C490C4D00919C802800E4
:10488000019AFEF75FFD02236A460421307CFFF7A0
:10489000DBFF6B461C785B78240228001C43FEF784
:1048A0006DFD200076BDC04600127A00FC05002098
:1048B00073B50B7C04000D00072B04D9002102F016
:1048C0004BFB200076BD00236A460B490B4E00913E
:1048D00093803000019AFEF735FD04236A460C21CF
:1048E000287CFFF7B1FF3000FEF748FD6946200045
:1048F00002F03AFBE5E7C04600127A00FC05002012
:1049000073B5037C06000024072B16D86B460C49B0
:104910000C4D00919C802800019AFEF713FD0223A4
:104920006A461021307CFFF78FFF6B461C785B785E
:10493000240228001C43FEF721FD200076BDC0465E
:1049400000127A00FC05002007B5002103480B0087
:104950000A00009102F0F2FA07BDC046D00800201C
:10496000704713B56B460268D97107335468190054
:104970000122A04716BD000070B505000189212065
:1049800000F004FB0400072807D800F05FFC0028B3
:1049900004D02A89034B6400E25270BD200000F06D
:1049A00099FCFAE7E0080020F8B50D4B06001B78EB
:1049B0000827332B00D1043F00240A4D2A8833896D
:1049C0009A4206D00134E4B20235A742F6D1002063
:1049D00005E0200000F00AFC1428F3D11338F8BDDC
:1049E00054090020E0080020F0B52D4B04001B788E
:1049F0000F0085B0002B0BD12A4A4360FA230260D6
:104A000008229B00836020002274638205B0F0BD01
:104A100008220392332B01D12F3B0393224B002515
:104A20000093082301950293009B1A883B899A42C0
:104A300011D1280000F0DAFB0600172801D01C284D
:104A400021D1280000F0FAFC002823D11C2E02D12D
:104A5000280000F03FFC009B013502330093039BCC
:104A6000EDB2AB42E0D1019B002B03D13B68380093
:104A70001B69984700236360FA230A4A9B0022605F
:104A8000A360029ABFE7142806D00028E3D1009B58
:104A90001880E0E70295DEE701230193DBE7C046DB
:104AA00054090020A4F30000E0080020F0B5164BE4
:104AB00089B01B78060015000191002B22D0082236
:104AC0000092332B01D12F3B00930024310003A827
:104AD000FFF78AFF0D4F3A8833899A4209D12000A7
:104AE00000F084FB172804D120000199AAB200F03D
:104AF000FDFC0134009BE4B20237A342EBD1280055
:104B000009B0F0BD1D00FAE754090020E0080020BC
:104B100007B5002103480B000A00009102F00EFACD
:104B200007BDC046D808002010B503689B6B9847A6
:104B300010BD0000024B03608B6943607047C046A4
:104B400068FC0000808B7047008A7047408C70477B
:104B500013B56B460268D9710733546819000122F6
:104B6000A04716BD704710B5441CE07F072803D846
:104B700000F054FB0823E37710BD70B5461C040019
:104B8000F07F0D00072801D800F048FB2900022023
:104B900000F0FCF900220300F0771000072B02D888
:104BA00025826284013070BDF0B593B0040006A880
:104BB0000F00150002F0BAF900230A93FA239B00B4
:104BC0000B93154B0EA80833099302F0AFF9082296
:104BD00011AB1A7002A802F0A9F9104B104E5B68D5
:104BE00004A906A8019305930496FFF7F4F9390088
:104BF0000C4B02AA06A8FFF78BFB012809D1039AE8
:104C0000236801929B6A2000059204962A0004A959
:104C1000984713B0F0BDC04620F4000058080020AB
:104C200068FC000088130000002310B5C383013026
:104C3000C07F043100F012FD10BD10B50130C07FFF
:104C400000F038FD10BD70B50D00040093B2421C99
:104C5000C18BD07F2A0000F0D9FCE38BC318E3831B
:104C600070BD37B5438C0400002B02D101204042B7
:104C70003EBD6B46DD1D431C01222900D87F00F09C
:104C800041FB0028F2DD638C2878013B6384EFE769
:104C900010B5438C0400002B02D10120404210BD0E
:104CA0000130C07F934208D81AB200F02BFB0028D5
:104CB000F3DD638C1B1A6384F1E712B2F5E710B5DC
:104CC000421C0300D07F072805D85B8C002B02D044
:104CD00000F0E4FB10BD01204042FBE7F0B5461CAC
:104CE0000400F07F0F00150085B0072801D800F000
:104CF00095FA0A4B2A0002937B68822002A901934D
:104D0000039300F0CBF900220300F0771000072B8B
:104D100002D825826284013005B0F0BD68FC000035
:104D200073B505006C8C002C06D02B682200002186
:104D300028009B6B9847F5E76E1CF07F00F07EFB28
:104D400003002000002B19D008226946F07F00F0F4
:104D5000D9FA002812DD28006946143002F010F953
:104D60006B461A795B7912029B18AB836B466A46D5
:104D70009B79D0791B02C01880B2688476BD000090
:104D800007B5002103480B000A00009102F0D6F895
:104D900007BDC046F008002013B56B46DC1D064B6E
:104DA00000021B7801221B02C918081880B22100DA
:104DB00000F096FD207816BD4C09002007B5074B82
:104DC00000021B781B02C9186B460818DA71D91D3E
:104DD000012280B200F0D8FCC0B20EBD4C09002008
:104DE00010B50C0011001A00044B00021B781B02C6
:104DF000E418201880B200F0C7FC10BD4C09002058
:104E0000F0B50C00050087B005AE242101921F000B
:104E100032000223FFF718FD327871781202114335
:104E20006418A3B20393204B64051B782800640D1B
:104E3000332B31D10830C00280B2201880B2372B1A
:104E40002ED08021E31909018B4229DD091B8BB289
:104E50001A000199029300F097FC134B28001B786D
:104E6000332B1BD10830114BC002FA18A218029C38
:104E7000019BA4466344190080B292B200F084FC06
:104E8000039B3200DB195BBA338024210223280004
:104E9000FFF7A6FF07B0F0BD1030CCE71030E2E717
:104EA0003A000199EAE7C0465409002000F8FFFFE4
:104EB00010B50321FFF770FF10BD07B549BA01AA6D
:104EC000118002230421FFF78BFF07BD10B50A00F4
:104ED00004230C21FFF784FF10BD07B549BA01AACE
:104EE000118002231021FFF77BFF07BD07B50223C6
:104EF00001AA2021FFF7A8FC6B466A461B7950796E
:104F00001B0218430EBD000070B50400FFF7EEFF52
:104F100005002000FFF7EAFF8542F9D1024BE400CB
:104F20001C19A08070BDC0460009002007B50223EF
:104F300001AA2621FFF788FC6B466A461B79507947
:104F40001B0218430EBD07B5022301AA2821FFF753
:104F50007BFC6B466A461B7950791B0218430EBDD9
:104F6000044B1B78332B03D10C30C00280B2704746
:104F70001830FAE754090020034A80041388800C93
:104F8000584010807047C0460A000020F0B53B4BE7
:104F900085B01B78082401900091002B30D02600AA
:104FA000332B00D1043E00253549364F02AB029128
:104FB0009D803800039AFEF7C5F9ECB22000FFF798
:104FC00077FF02AB5855002821D00135EBB2B34230
:104FD000F3D3B42100230120890502AAD25CDCB2FC
:104FE0001D2A05D80D00D5402A00050095430AD09A
:104FF0000133DAB29642F0D83800FEF7BFF9082440
:10500000200005B0F0BD1021200000F035FE002189
:105010001D4A63009952FA231B01013BFDD1019AFD
:105020002000FFF7CBFE0221FF222000FFF7C6FE83
:10503000009B191E08D1154A1549138801339BB2EC
:105040008B4218D91380118800262000FFF735FF06
:105050000121200000F010FE0E4DE3005E53200001
:10506000FFF771FFE300ED186880AE713800AE8085
:10507000FEF784F9C4E7084BE4E7C0465409002072
:1050800000127A00FC050020E00800200A00002041
:10509000FFBF00000009002000C0FFFFF0B54A4B31
:1050A00089B01B781600082403900191002B30D0A2
:1050B0000294332B01D12F3B02930025434906AFC5
:1050C0000691BD807A684248FEF73CF9ECB22000B8
:1050D000FFF7EEFE7855002822D00135029AEBB298
:1050E0009342F3D3B421002301208905FA5CDCB29A
:1050F0001D2A05D80D00D5402A00050095430BD088
:105100000133029CDAB29442F0D83148FEF736F906
:105110000824200009B0F0BD1021200000F0ACFDF3
:1051200000212C4A63009952FA231B01013BFDD157
:10513000039A2000FFF742FE0221FF222000FFF722
:105140003DFE311E08D1244A2449138801339BB205
:105150008B4237D9138011882000FFF7AEFE06225C
:105160001F4904A807F09EF97F22019B20005B796C
:10517000E700134004AAD370019B9B791371019B34
:10518000DB795371019B191DFFF7A0FE3100200050
:10519000FFF7A3FE06230026190004AA2000FFF74C
:1051A0001FFE0121200000F067FD0E4D20007E5300
:1051B000FFF7C9FEED196880AE710548AE80FEF7B5
:1051C000DDF8A6E7084BC5E75409002000127A0075
:1051D000FC050020E00800200A000020FFBF0000BE
:1051E00074F400000009002000C0FFFF37B5002361
:1051F0006A460400074D938028000749019AFEF78C
:10520000A1F82000FFF754FE04002800FEF7B6F8CE
:1052100020003EBDFC05002000127A0037B50023B7
:105220006A460400074D93802800019A0649FEF75C
:1052300089F81021200000F01FFD2800FEF79EF8DD
:1052400037BDC046FC05002000127A0073B500246B
:105250006B4605000C4E9C8030000C49019AFEF70D
:1052600071F82800FFF724FE132804D03000FEF761
:1052700085F8200076BD0221280000F0FDFC3000FA
:10528000FEF77CF80120F5E7FC05002000127A000B
:10529000F7B5002315006A4604000E000B4F9380FB
:1052A000019A38000A49FEF74DF831002000FFF757
:1052B0000DFE29002000FFF710FE0421200000F061
:1052C000DBFC3800FEF75AF8F7BDC046FC050020AD
:1052D00000127A0037B500236A460400074D938018
:1052E0002800019A0649FEF72DF80821200000F059
:1052F000C3FC2800FEF742F837BDC046FC0500207D
:1053000000127A000023F0B587B00291464901925D
:1053100004AA464E04919380C7000500059A4448AC
:10532000BC5BFEF70FF8019BA3420CDD2800FFF7E2
:10533000FDFD04002800FFF7F9FDA042F9D1F319A3
:105340009C79041BF453002C10D12800FFF7B0FD0A
:10535000142805D0002803D01C38441EA041444224
:105360003348FEF70BF8200007B0F0BD019B9C42CC
:1053700000DD1C00F6197388A6B20393029B002B74
:1053800027D0039B28005A05530D0193FFF7E8FD32
:10539000019B1818274B80B21B78372B3ED08027F3
:1053A000019A3F01B318BB4238DDBF1ABFB23A00C1
:1053B000029900F095FA029B2800DF19FFF7D0FD53
:1053C0001D49019B8C4639006344F21892B200F0EB
:1053D00087FA039B154AE8009B199BB217187B803C
:1053E000815A0193891B89B28152BB799C466644DC
:1053F000B6B2F92E01D8002913D10021019B121851
:1054000091715BBA04AA1380280002232831FFF7A8
:10541000E7FC4021280000F02FFCA1E732000299B0
:10542000D5E7BE719CE7C04600127A000009002053
:10543000FC0500205409002000F8FFFFF0B5144ED1
:10544000C3000500985B85B0009300281ED102AB15
:10545000104F988010493800039A0291FDF772FFAF
:105460002800FFF763FD040028000194FFF75EFDAC
:10547000019B04009842F7D13800FDF77FFF009BA5
:10548000F3189879009B201A80B2F05205B0F0BD55
:1054900000090020FC05002000127A0037B5002327
:1054A0006A4604000E490F4D009193802800019A2E
:1054B000FDF748FF2000FFF753FD0B4BE4001C19DC
:1054C000638801225B055B0DC018694680B200F05D
:1054D00007FA2800FDF752FF6B4618783EBDC0461C
:1054E00000127A00FC050020000900208023F0B59E
:1054F00085B004000091151C1B019A4200D91D1CA7
:10550000ADB2002202AB2E4E9A802E49039A300093
:10551000FDF718FF2000FFF7F7FC01902000FFF7D0
:10552000C7FC07003000FDF729FF172F01D01C2F03
:105530002DD103F06BFC019BAB42E2D3002702AB01
:105540009F8030001F49039AFDF7FCFE39002000C0
:105550002B00009AFFF754FC2021200000F08CFB68
:1055600002212000FFF718FC1023034000931023B2
:1055700018421BD12000FFF79BFC07003000002FD2
:1055800007D1FDF7FBFE3D00280005B0F0BD00256A
:10559000D4E7FDF7F3FE03F039FC009A02AB9A80E2
:1055A00030000849039AFDF7CDFED9E71022022109
:1055B0002000FFF703FC3000FDF7E0FEE4E7C04603
:1055C000FC05002000127A00F7B500266B460500A6
:1055D0000C4F9E800C49019A3800FDF7B3FE28005D
:1055E000FFF792FC04002800FFF762FC050038007A
:1055F000FDF7C4FE172D02D01C2D00D03400200072
:10560000FEBDC046FC05002000127A00F0B51C006B
:105610000023050085B00F4F160002AA93803800C2
:10562000039A01910C49FDF78DFE2800FFF76CFCF1
:10563000031CA04200D9231C9CB223003200280086
:105640000199FFF7DDFB3800FDF798FE200005B05B
:10565000F0BDC046FC05002000127A00F7B50B78BB
:1056600005000C001600002B08D14B78002B05D14B
:105670008B78002B02D1CB78181E16D000208642E2
:1056800013D06B46094F9880019A38000849FDF7FE
:1056900059FE21002800FFF719FC31002800FFF710
:1056A0001CFC3800FDF76AFE0120FEBDFC05002051
:1056B00000127A000023F0B5040085B0204D02AA44
:1056C000938028001F49039AFDF73CFE202120000B
:1056D00000F0D2FA102602212000FFF75DFB030044
:1056E00033400193304220D102212000FFF754FBC8
:1056F000082307001F4018420AD018220221200068
:10570000FFF75CFB2800FDF739FE019805B0F0BDFE
:105710002800FDF733FE03F079FB02AB9F802800E1
:105720000849039AFDF70EFED5E71022022120005A
:10573000FFF744FB2800FDF721FE0120E6E7C04605
:10574000FC05002000127A0007B5002103480B0079
:105750000A00009101F0F2FB07BDC046F8080020E6
:10576000024B034A1B6812685A61704748090020BF
:1057700050090020024B034A1B6812689A61704767
:105780004809002050090020F0B54A4B04001B785E
:105790000D00160085B0332B1ED183189BB20193E8
:1057A000019BA34273D0FFF7DBFF434FF02138008A
:1057B000FDF7F8FD210A3800FDF7F4FDE1B23800ED
:1057C000FDF7F0FD013429783800FDF7EBFDA4B2B8
:1057D000FFF7D0FF0135E3E7C7B2342B1BD1FFF74A
:1057E000BFFF64BA02AB1C808023320A5B421343C2
:1057F00002AA93701300304CD670190004222000C6
:10580000FDF7D5FDAF19AF423FD029782000FDF755
:10581000C9FD0135F7E7FFF7A3FF0023FF2C05D8EB
:1058200002AA13700423577093700CE022B2002A6E
:1058300014DB02AAE410200013701F230C249843E9
:10584000044357709470052E24D80023B34217DA0E
:1058500002A95A18E95C0133D170F7E71F22A3119E
:10586000164993435BB262BA8C4205D802A90A80FA
:10587000142213430A00D7E702A90A801C22F8E782
:105880000D48F21C02A9FDF792FDFFF773FF3000EF
:1058900005B0F0BD084F0322380002A9FDF787FDCF
:1058A0000024295D38000134FDF77CFDA3B2B3422A
:1058B000F7D3EAE754090020FC050020FFBF0000F1
:1058C00007B56B46D971073301221900FFF75CFF5A
:1058D000C0B20EBD10B501000020FFF7F1FF10BDF2
:1058E000F0B5384B04001B780E00170085B0332B41
:1058F0001FD183189BB20193019BA34237D0FFF7BE
:105900002FFF314D0F212800FDF74CFD210A280003
:10591000FDF748FDE1B22800FDF744FD0021280015
:10592000FDF740FD01343070FFF724FFA4B20136CB
:10593000E2E7C2B2019203AD342B1BD1FFF710FF97
:1059400004227B0464BA5B0E2C80AB70EF702900DC
:105950001D48FDF72CFD3A000021300006F0ABFD9C
:105960003A0031001848FDF722FDFFF703FF380029
:1059700005B0F0BDFFF7F4FEFF2C05D80023019A17
:105980002B706A70AB700DE023B2002B0CDB002390
:105990002B70E3B2E41020006B701F23082498439F
:1059A0000443AC700322D2E71F22A311074993439B
:1059B00062BA2A805BB210228C4200D918221343AB
:1059C000E0E7C04654090020FC050020FFBF0000AE
:1059D00013B56B46DC1D01222100FFF781FF207803
:1059E00016BD10B50020FFF7F3FF10BD10B58020E5
:1059F000FFF770FF1424FFF7F4FF002808D0013CE4
:105A00000120A4B203F0E2F9002CF4D1200010BD73
:105A10000120FCE73322104B10B51A70FFF7E6FFA8
:105A2000002801D1002010BD1020FFF753FFFFF721
:105A3000D8FF1028F6D10230FFF74CFFFFF7D1FF57
:105A40001228EFD10020FFF745FFFFF7CAFF4342BE
:105A50005841C0B2E7E7C046540900203422134B36
:105A600010B51A70FFF7C2FF002801D1002010BD49
:105A70000820FFF72FFFFFF7B4FF0828F6D1083002
:105A8000FFF728FFFFF7ADFF1028EFD10020FFF749
:105A900021FFFFF7A6FF0028E8D11F30FFF798FF8E
:105AA000033843425841C0B2E1E7C04654090020E0
:105AB0003722134B10B51A70FFF798FF002801D159
:105AC000002010BD0820FFF705FFFFF78AFF082818
:105AD000F6D10830FFF7FEFEFFF783FF1028EFD165
:105AE0000020FFF7F7FEFFF77CFF0028E8D13930F0
:105AF000FFF76EFF043843425841C0B2E1E7C046A9
:105B000054090020F7B5334E01243778002F5FD1B8
:105B10008C20800003F05AF92F4D2800FDF708FD76
:105B200018212E4B2E4A18782E4B4143CB56DB01C1
:105B30009B182D4A13602B4B5A18536822009A4029
:105B40002A4B21001A6003F0F3FAFFF713FE6B46AD
:105B50009F8028002649019AFDF7F4FBFFF77EFF9E
:105B6000002818D04022234B3C001A7002373A001C
:105B70001E212000FFF722F9200001343A001F21E6
:105B8000E4B2FFF71BF9082CF1D101242800FDF73E
:105B9000F5FB34701CE0FFF78BFF002803D01022C8
:105BA000144B1A70F1E7FFF735FF041E0BD00422E7
:105BB000104B55211B201A70FFF782FE55211A2029
:105BC000FFF77EFEE1E70C4B18702800FDF7D6FBCF
:105BD0002000FEBD55090020FC0500200C0000201F
:105BE0000044004110F8000048090020500900203E
:105BF00000127A004C0900205409002037B5FFF745
:105C000081FF002806D0194B00201B78342B02D0CE
:105C1000372B15D03EBD6B46154D98801549019A1E
:105C20002800FDF78FFB3520FFF7D2FE0400280087
:105C3000FDF7A4FB20200440604260410130E9E709
:105C40006B460B4D98800B49019A2800FDF77AFBB3
:105C50002E20FFF7BDFE04002800FDF78FFB01207A
:105C600004400018001BC0B2D4E7C046540900200D
:105C7000FC05002000127A000A0010B50121040082
:105C8000FFF79CF82402054B187800020130201819
:105C900080B2FFF79DFE0028F5D110BD4C09002011
:105CA00007B5002103480B000A00009101F046F9F6
:105CB00007BDC04640090020084B10B5083304005A
:105CC0000360406A002801D006F0D4FB6068002819
:105CD00001D000F0FBFF200010BDC0467CF40000A6
:105CE00010B50400FFF7E8FF200003F0B9F820002A
:105CF00010BD0000064B0833036000238160436041
:105D0000C360037443628362C36203634363704787
:105D10007CF4000010B50400034B08330360FFF768
:105D2000CBFF200010BDC0468CF4000010B504006D
:105D3000FFF7F0FF200003F093F8200010BD0000F3
:105D4000FA2110B504008900FFF7D4FF034B2000AF
:105D500008332360024BA36310BDC0468CF40000DF
:105D6000E809002010B5054C2000FFF7E9FF2000EE
:105D7000034A044903F06CFB10BDC04658090020DB
:105D800000000020155D000010B50400034B08332F
:105D9000036000F055F8200010BDC0469CF40000E0
:105DA00010B50400FFF7F0FF200003F059F82000C1
:105DB00010BD10B5C0B004006946406800F06EFB2D
:105DC00002000020824206DD230069466068083335
:105DD00000F0FCFB012040B010BD000010B5040035
:105DE00000F01EF8034B200008332360024BA3632E
:105DF00010BDC0469CF40000E809002010B5054C19
:105E00002000FFF7EBFF2000034A044903F020FBCA
:105E100010BDC0469409002000000020895D0000EC
:105E2000002110B50400054B4160083303603022A7
:105E3000083006F040FB200010BDC046B0F4000062
:105E40000F4B10B5083304000360806A002801D0AE
:105E500006F010FBE06A002801D006F00BFB206B77
:105E6000002801D006F006FB606B002801D006F088
:105E700001FB6068002801D000F028FF200010BD61
:105E8000B0F4000070B504000E001500002901DB1D
:105E9000002A06DC06F0A0FA162303600120404227
:105EA00070BD1100C06A07F017FAE062002802D145
:105EB00060612061F4E72A00002106F0FCFA01206D
:105EC00066612561ECE7F8B504000E0015000029B5
:105ED00001DB002A06DC06F07FFA162303600120AE
:105EE0004042F8BD57003900406B07F0F5F9606398
:105EF000002802D160622062F3E73A00002106F038
:105F0000DAFA012066622562EBE7F8B504000E00BC
:105F10001500002901DB002A06DC06F05DFA1623D5
:105F2000036001204042F8BD57003900006B07F0C4
:105F3000D3F92063002802D1E061A061F3E73A00C1
:105F4000002106F0B8FA0120E661A561EBE7000048
:105F5000436A10B58B4203DC026A9A188A4206DC57
:105F600006F03AFA044B03600120404210BDC91A02
:105F7000436B4900C85AF9E75042B206436A10B56C
:105F80008B4203DC046A1C198C4205DC06F024FAFF
:105F9000044B0360002010BDC91A436B4900012067
:105FA000CA52F8E75042B20670B50C0011001A0050
:105FB0004369A34204DC0569A6185D19B54205DAF8
:105FC00006F00AFA054B0360002070BDC06AE41AAF
:105FD000001906F067FA0120F7E7C0465042B20602
:105FE00007B513006A46073213700123FFF7DCFF81
:105FF0000EBD000070B50C001100C269A24204DCA5
:106000008569E6185519B54205DA06F0E5F9064B3B
:106010000360002070BD006BA41A640000195A00D0
:1060200006F040FA0120F5E75042B20610B5040030
:10603000806A002801D006F01DFAE06A002801D02D
:1060400006F018FA206B002801D006F013FA606BF6
:10605000002801D006F00EFA20003022002108307E
:1060600006F029FA6068002806D000F055FA60684A
:1060700000F02CFE0023636010BD70B505000C001D
:106080001600FFF7D3FF201E6C6003D0310000F034
:1060900027FA012070BD000007B5002103480B005E
:1060A0000A00009100F04AFF07BDC046D009002059
:1060B00010B50400034B08330360FFF7C1FE200056
:1060C00010BDC046C4F4000010B50400FFF7F0FF97
:1060D000200002F0C5FE200010BD10B5C2B00400C3
:1060E00001A9406800F0DAF902000020824206DDD2
:1060F00023006068083301A900F068FA012042B06B
:1061000010BD030000209A6B10B5824202D0180027
:10611000FFF7E3FF10BD000010B50400FFF780FE9D
:10612000034B2000083323600023A36310BDC04647
:10613000C4F400007FB500240500230022000E00F7
:106140000094210002A800F0F9FE2200200002A91C
:1061500000F034F93200040001002800FFF78DFF41
:10616000002804D0200000F00EF94342584104B04A
:1061700070BD70B5040040680D0000F00FF90028F4
:1061800000D1A56370BD000007B5002103480B00D6
:106190000A00009100F0D2FE07BDC046D8090020D9
:1061A000F0B507260C0000250127B4468A18A24244
:1061B00000D8F0BD661AF6089E5D2E413E40065599
:1061C0006646013535400134F1E70000F0B50E4D6B
:1061D000476BAC463E880025059C664501D00136DC
:1061E000B5B23D802D1225703D8865700025A570E3
:1061F000E5700068E171627211121A12A0712172C9
:106200000C20A272E372F0BDFFFF000083681B1236
:106210000B7083684B7000238B70CB7003688B719D
:1062200043680820CB717047030000785B78000258
:10623000C018704703008A1F0800111219715A71A3
:106240007047436B10B5186903685B68984710BDC9
:10625000436B10B5186903685B6A984710BD10005E
:1062600070470000436B13B5186969460268D4692A
:10627000054A0092DA6801925A6892B2A0474342F6
:106280005841404216BDC04668FC0000436B10B543
:10629000002B05D01869002802D003689B6A984734
:1062A00010BD10B5446B206903681B69984700282E
:1062B00004D0206903685B699847F4E710BD10B506
:1062C0000400406B06F0D6F8200006F0D3F810BDAD
:1062D000F7B51E00151E476B07D0FA211568890017
:1062E00090684D4303F064F92D1802F039FD0190D8
:1062F000386903681B6998470400B0420BDA02F062
:106300002FFD019BC01AA84205D238690368DB6AD9
:1063100098470028ECD1002C04D106F05DF87423D6
:10632000013C03602000FEBD10B5002200F0D4FB4C
:1063300010BD000010B513780878984203D1497851
:106340005378994206D006F047F8064B03600120C7
:10635000404206E000209378834202D0D378834203
:10636000F1D110BD5B42B20610B5F72902D8016029
:10637000002010BDFF29FAD006F02EF81623036086
:1063800001204042F5E7002310B5984204D106F001
:1063900023F816230360173B180010BD10B5002822
:1063A00006D106F019F8162303600120404210BD03
:1063B0000029F6D0436B00201961F8E7F8B5070013
:1063C00038200E00150006F04BF8040000F074F8B9
:1063D000FF232360064B1420236306F041F8736803
:1063E0000761C36000234560606303802000F8BD3F
:1063F000D8F4000007B5002103480B000A00009103
:1064000000F09CFD07BDC046E009002010B5040067
:10641000FA2023698000584302F0D8FCA369002BBE
:1064200006D030200321584303F038F80138FDD15D
:1064300010BD10B5002806D105F0CEFF162303606D
:106440000120404210BD036B1B6C9847FAE7000027
:10645000F7B51C00836806000F001500002B07D05D
:106460000D4B0AAA1B680999D868019206F07CFABC
:10647000089B002B05D03000FFF7C8FF3000FFF766
:10648000D8FF7B68380080337B60336B21009B69C9
:10649000984725540130FEBD9400002010B5002817
:1064A00006D105F099FF162303600120404210BD7C
:1064B000036B9B6A9847FAE701235B4203604360E2
:1064C000002330B5002500248360C360034B0461C2
:1064D0004561046245628361836230BD20A107008B
:1064E00010B5002806D105F077FF162303600120C0
:1064F000404210BD036B1B699847FAE710B50028AE
:1065000006D105F069FF162303600120404210BD4B
:10651000036B9B6B9847FAE710B5002802D0036B1A
:10652000DB6B984710BD0000F7B50F00036B04004C
:10653000110038001B6A98470600236B32003900AF
:1065400020005B6A98470500431C19D10222E368CA
:10655000134225D005F040FF0368019305F03CFF8E
:106560000368092B1ED12000FFF7D6FF2000FFF79C
:106570004DFF2000FFF7C2FF05F02EFF019B0360D7
:106580000222E368134201D06B1CD6D0002D07DD38
:10659000AE4205D005F020FF01250B4B6D42036094
:1065A0002800FEBD05F018FF0368682BDBD005F05E
:1065B00013FF0368202BD6D02000FFF727FF200011
:1065C000FFF737FFD8E7C0465B42B206F0B5D3B05D
:1065D00007000E001D000D92002808D105F0FCFEFA
:1065E00016230360173B0993099853B0F0BD016B64
:1065F00030004B68F4180A93631E1B786278099385
:10660000237812020893A3789B189BB20793099BE7
:106610000E93089B0F93CB690DA99847089B109088
:10662000581E162800D948E202F02EFF1700170066
:106630008C008C00CF0006018A0147024702470206
:106640004702470247024702190148017301470206
:106650004702470247029001C601089B022B1FD147
:106660006B6AE868A968C64A0A93E37811AE1D020E
:106670002379EB1808935C1EFA23DB009C4215D3A8
:106680000493089B03920293BE4B032201930123C0
:10669000380000930EA93300FFF7DAFE040034E05F
:1066A0002B6A68682968B84A0A93DEE7079B1D1AB7
:1066B00006D408984019079088420ADD08995B18AB
:1066C0000293B24B03920193002300933300022202
:1066D000ADE03B6B31009B690EA898470723089AF1
:1066E000441C13405A1E9341089AD2109B18002252
:1066F000335413000799A94212DC002B05D052AB8A
:106700001B19053BFF3B1A700134099B002B00D17C
:106710006AE72200380011A9FFF706FF099063E736
:106720000A99495D99400A43072B09D152AB1B19BD
:10673000053BFF3B1A700022130001340135D9E7F5
:106740000133FBE7089B042B11D1AB6A6869296907
:106750008F4A0893E57823792D02ED186B1E11AE50
:106760007C2B0AD97D230392049302958CE7EB6A74
:10677000E869A969874A0893ECE7079B1C1A9FD42C
:1067800028190790884201DD5B1999E73B6B3100BE
:106790009B690EA8984703006A00F254F61823007C
:1067A0000130079A9A4205DC0023A24200DB6B000D
:1067B0001C18AAE7089A5900525A0133120A72703B
:1067C000089A0236525A3270EBE7079B6A689A1AA7
:1067D00002D42B6893420CDC079B02936E4B01930F
:1067E00000230222009311AB38000EA9FFF730FE00
:1067F00054E7E37821791B025B18FF2109028B42E1
:1068000001D0002B0AD1581E8341296A8B540D9C5C
:106810003100220011A805F045FE76E702935F4B98
:10682000079A0193002303920322009311AB3800CF
:106830000EA9FFF70DFE31E7079BEA69991A02D40A
:10684000AB698B4203DC079B0293554BC7E7E378A8
:106850002079EA6A1B0249001B188B52D7E7E278BD
:1068600023791202D218F623511EDB00994205D378
:1068700003934C4B029201930123D5E7079B696870
:10688000591A04D42C685018A04203DD9B180293B7
:10689000454BA4E70A9B286A0633F318FFF780FCF0
:1068A0003B6B11A99B690EA89847040011AB3119E5
:1068B0000422181805F0F6FD043426E7E27823795F
:1068C0001202D218531E7A2B04D97B23029203930F
:1068D000364BD0E7079B9C466146EB69CB1A05D443
:1068E000A869D118079181420EDD94446346029352
:1068F0002F4B74E75A009446604621796279090269
:106900005218E96A01334252079A02349A42F1DC82
:10691000C6E73B6B11AE31009B690EA89847B422C5
:10692000050033185A7003304B329A7021493018E1
:10693000F73A05F0B7FD2C000A230B347355E4E653
:1069400005F04AFD6D2303606E3B4CE6079BEA6948
:106950009B1A00D577E7AA699A4200DC73E7E278D0
:106960002079E96A120265795B008018A2792D020C
:10697000CC5A80B25219824320400243CA5246E7A1
:1069800024F5000062F5000034F500008AF50000EF
:106990003EF5000053F50000ACF50000D5F5000011
:1069A00013F6000041F6000075F600009FF60000A7
:1069B000D8F6000007F70000E37826791B029E193D
:1069C000E379227A1B029B185A1E782A07D8002ED8
:1069D00005D07D2E03DC617A5A008A4210D00293E2
:1069E0003A4B7D22019301230592043A04920093CD
:1069F0003800039611AB763A0EA9FFF729FD4DE654
:106A0000E86907990A1A60790A92A27900021218B5
:106A1000E86992B2101A08900A9800280CDB311825
:106A20000B910B98A969884204DC089818180C90FF
:106A300081420DDA079989190898002800DBD218DD
:106A4000234B0392019300230291009311AB3EE686
:106A50003B6B11A99B690EA898472C21431C06AAE1
:106A60009C465218730013540C9B089A02349342AC
:106A70000DDC11AB18180A9B0B9A9A4213DC130019
:106A80000A9A0024934200DB740064443DE6089BAC
:106A9000227A5900637A12029B18EA6A8B52089B89
:106AA00001330893E0E7E96A5C000A5B0133120AEC
:106AB00042700A5B02300270DEE70122089B0092FE
:106AC0000293044B019311AB8EE6C04610F7000011
:106AD0005CF70000ADF70000036BF0B55C680023C5
:106AE0008BB005000091039201340293002A07D075
:106AF00002694369069207938369089306AB029380
:106B0000002601962B6B002C06D128001B6B019AE6
:106B100000999847070022E05B6C28001F00029A4A
:106B2000230004A9B84703000700013326D1EB680E
:106B30009B0703D401235B421F0010E005F04CFCCF
:106B4000046805F049FC0368742B0BD12800FFF79B
:106B50005DFC2800FFF76DFC05F03EFC046038008A
:106B60000BB0F0BD05F038FC0368092BF4D1280008
:106B7000FFF7D2FC2800FFF7C1FCEDE7009B019A6C
:106B8000280099182B6B2200DB6A9847002818D13F
:106B900005F022FC68230360EB689B07CAD505F06B
:106BA0001BFC0368682B1BD105F016FC0468280049
:106BB000FFF7B2FC2800FFF7A1FC05F00DFC046014
:106BC000B8E7431CE8D0019B241A1B180193002C42
:106BD0005ED12A6B002E0ED0012E2ED0022691E718
:106BE00005F0FAFB03686F2BDED005F0F5FB0368B8
:106BF000092B9FD1D8E75168009B5B5C0399002962
:106C00000CD1062B5DDD19000F39012954D9162B43
:106C100055D0172B11D1012609243CE0102B07D8A1
:106C20000E2B4ED8053B0126012B4BD9340032E008
:106C30000126162BFAD106242DE0536800990398FB
:106C4000C95C002819D1102905D80E2905D9009949
:106C5000CB185C7901E017290BD09368E418019BED
:106C60001919D368994212DD05F0B6FB164B036083
:106C700060E70099CB185C7AEFE7042903DD11295E
:106C800001D01729E9D10099CB185C78E5E70226F5
:106C9000002C00DC36E76B6A296AAA6A002B05DC47
:106CA00001D1002902D1002A00DC2BE7079306ABB3
:106CB00006910892029325E701260524EBE70126B9
:106CC000B9E701260424E6E75B42B20610B50028C6
:106CD00002D0036B9B6C984710BD0000322313B5A4
:106CE00002680093946A014AA04713BD1304000090
:106CF00013B504680093A46A1300014AA04713BDAA
:106D000013040000322313B504680093A46AA0475B
:106D100013BD10B5006903681B69984710BD10B515
:106D2000006903689B69984710BD10B50069036846
:106D30005B69984710BD10B500690368DB68984728
:106D400010BD0120704770B516000286026A04006B
:106D50000D00C162002A00D013002362636A002B79
:106D600000D00493049BA0696362002806DB012124
:106D700002F0DEF90021A06902F00AFAE0690028B9
:106D800006DB012102F0D4F90121E06902F000FAEA
:106D900023000022206928331A700368320029007A
:106DA0001B6A984770BD10B50400006903685B6AF0
:106DB0009847A069002806DB002102F0E9F90021CC
:106DC000A06902F0B5F9E069002806DB002102F0B5
:106DD000DFF90021E06902F0ABF910BD020010B547
:106DE000283203001078002802D101225A6010BD19
:106DF000186903681B689847F9E70000FA210A4BF5
:106E000089009960094900220831196008495A60CF
:106E1000196101215961113199610131D9611A62F8
:106E20005A6228331A707047E8090020D4F700002E
:106E30001C0A002010B5024801F040FE10BDC046FB
:106E40001C0A002010B5024801F038FE10BDC046F3
:106E5000180D0020F7B501240326154F15493800F9
:106E600000F0E4F91449154800F0E0F91449154818
:106E700000F0DCF91449154800F0D8F91449154818
:106E800000F0D4F9144D1549280000F0CFF939006D
:106E90002300009600220194114801F0A5FD29006D
:106EA00000961E231F2201940E4801F09DFDF7BDA0
:106EB0001410002000080042000C004218100020AE
:106EC000001000421C10002000140042201000207E
:106ED000001800422410002028100020001C00424E
:106EE0001C0A0020180D0020F7B5C31D01930023D4
:106EF00005000C00071D009339780A22200000F0DD
:106F0000C9F82E210600200000F066F8009B361814
:106F10009B190093019B01379F42EDD1E9790A2229
:106F2000200000F0B7F8009B1818FEBD024B083394
:106F3000036000234360704760FC000030B503AC81
:106F40002578044CC5710834046001714271837165
:106F500030BDC04660FC0000024B08330360416056
:106F60007047C04660FC000010B50400034B0422CB
:106F7000083308C005F096FA200010BD60FC000040
:106F800010B504000422043005F08CFA200010BD76
:106F9000F8B505000E0017000024BC4208D02B688D
:106FA0002800315D1B689847002801D00134F4E7C0
:106FB0002000F8BD70B505000C00081E07D006F0D3
:106FC000AFF92B680200210028005B68984770BD6C
:106FD00010B5FFF7EFFF10BD10B503681B689847A9
:106FE00010BD030010B50A68080012681900904728
:106FF00010BD000010B50249FFF7DCFF10BDC04610
:107000006CFC000070B50400FFF7D4FF0500200001
:10701000FFF7F0FF401970BD70B50500FFF7E1FF05
:1070200004002800FFF7E6FF201870BDF0B58BB014
:107030006B4614000022053307000D00DA77012C9F
:1070400000D80A2409AE2800210002F0ADFA03009E
:10705000CAB2080029001D0013003733DBB209282B
:1070600002D813003033DBB2013E33708C42EAD9D0
:1070700031003800FFF79EFF0BB0F0BD10B5002ABD
:1070800004D10368C9B21B68984710BDD2B2FFF79C
:10709000CDFFFAE710B5FFF7F1FF10BDF7B51C0003
:1070A00008AB1B7821000093070023001000150097
:1070B00005F086F84A4900281ED1012266007608AC
:1070C00028003100474B524205F07AF8002809D1D8
:1070D000012231002800434B524202F075FB424925
:1070E000002809D0E02228002100404B120602F0BF
:1070F00075FB002806D03E493800FFF75BFF06000D
:107100003000FEBDE022280021003A4B120602F0BA
:1071100051FB0028EFD1002200232800210002F0BB
:1071200049FB002814D02D213800FFF755FF80239C
:107130001B060190E418002600202F49009BB34253
:1071400008D000222D4B013603F036FEF6B2F5E7EB
:107150000190F0E72A00230003F0C4FA0D000400B8
:1071600002F0A2FB060005F07FF80B0002002900E8
:10717000200004F093FC0A2204000D0038003100C6
:10718000FFF754FF019BC618009B002B04D038006A
:107190001B49FFF70FFF3618009B013BDBB2009342
:1071A000FF2BADD0154B00222000290004F00AFA75
:1071B0000D00040002F078FB0A2201000190380063
:1071C000FFF734FF3618019805F04EF802000B0067
:1071D0002000290004F062FC04000D00DCE7C0463A
:1071E0006FFC0000FFFFEF7F73FC0000FFFFEF412B
:1071F00077FC0000FFFFEFC10000E03F00002440EB
:1072000079F1000007B50499C9B20091FFF746FF74
:107210000EBD37B506990400C9B20091FFF73EFFD5
:1072200005002000FFF7E6FE40193EBD01607047F3
:107230009446F0B505AC25789C1E621E94416246CA
:1072400006689207376824063A43224307243260CF
:1072500000682140AD01002442682943022B00D080
:107260005C030A4322434260F0BD30B5C025036889
:10727000AD031C6812052A402243C0240904A4025D
:1072800021400A431A6003685A6814435C6030BDA9
:107290000123026811680B43136003681A68D20760
:1072A000FCD4DA69D207F9D4704702230268116866
:1072B0000B4313600268D3699B07FCD470470368D3
:1072C0001A7ED20702D41A7E9207FCD5704700229C
:1072D00003685A8370470368187E4007C00F7047E1
:1072E0000368187EC0097047802302685B42117EE4
:1072F0000B43137670470368588B8007C00F7047A5
:1073000002230268518B0B43538370470368187E36
:10731000C007C00F70470368188DC0B2704703687C
:107320001A7ED207FCD589B2012019857047012247
:1073300003689A757047012203681A757047012324
:10734000026811680B43136003681A68D207FCD403
:10735000DA69D207F9D470470223026811680B4337
:1073600013600268D3699B07FCD470470368DA692D
:107370009207FCD402211A688A431A607047026897
:10738000936A5B0A5B020B43936203681A7E52079F
:10739000FCD5986AC0B2704710B50548490002F0A4
:1073A0007DF880B2002801D0013880B2C0B210BD93
:1073B000006CDC0270B50C00012611006308026845
:1073C00033403440156824075B0723432B43136085
:1073D0000468FFF7E1FF207370BD012302681168A4
:1073E0000B43136003681A68D207FCD4DA69D2072A
:1073F000F9D470470223026811680B4313600368D5
:10740000DA699207FCD430215A8B8A43110010228A
:107410000A435A830268D3695B07FCD47047802310
:107420000268DB02116851680B435360704700002B
:10743000036803491A685A680A405A607047C04690
:10744000FFFFFBFF032230B5036811401C68074DA6
:107450005A6809042A40E4061143640F5960052C58
:1074600003D10268D3695B07FCD430BDFFFFFCFF8A
:1074700030B503680400588B8006800F022813D0B3
:107480005D8B0020AD06AD0F032D2ED0588B8007ED
:1074900005D55D8B0020AD06AD0F012D25D15D8B8F
:1074A000AD06AD0F281E20D04800596A1043C90A06
:1074B000C0B2C902014359622368002A08D11A7E6A
:1074C000D207FCD5588B01234007C00F58400CE071
:1074D0001A7E9207D00F002AF4DB1A7ED207F7D566
:1074E000C022596892020A435A6030BD03682833AB
:1074F00019700268137EDB07D80F002B03D1538B62
:10750000DB07F7D570470123508B4007C00F584069
:10751000F8E70368283319700268137E5B07D80FF9
:10752000002B04DA0123508B4007C00F58407047EE
:1075300003681868C006400F043843425841C0B27F
:1075400070470368187E4007C00F70470368187EB5
:10755000C007C00F70470368588BC006C00F704744
:107560000368187E8007C00F70470368588B0007B8
:10757000C00F704703681A68D206520F052A02D15D
:107580001A7E9207FCD528331878C0B270470000E5
:107590000368104A934213D00F4A934212D00F4A05
:1075A000934211D00E4A934210D00E4A93420FD00C
:1075B00001200D4A4042934201D1063040B270474B
:1075C0000020FBE70120F9E70220F7E70320F5E7B9
:1075D0000420F3E700080042000C004200100042C3
:1075E0000014004200180042001C0042F8B5FFF7EA
:1075F000CFFF00282CDB1D4BC00018180523047991
:10760000C3560320FF221840C0008240C021D2434D
:107610008140002B1DDB1F2501201D40C026A840F6
:10762000134D7600A851C0269B089B005B19B6003D
:107630009F593A401143995128603F2323408024A9
:10764000E4011C430B4B5C805A7852B2002AFBDBEE
:10765000F8BD0F200340083B07489B089B001B1800
:10766000D86902401143D961E7E7C0467CFC0000BD
:1076700000E100E0000C004000ED00E0F8B504007F
:107680000F0016001D00FFF7B1FF2000FFF700FEFE
:107690001C21BB000B4071072268090C0B431360CF
:1076A000842322689375012F1AD11021012E00D056
:1076B00008390C4B69431868C00001F0EFFE07223F
:1076C000216802408B895203DB04DB0C13438B815E
:1076D000226803049089DB0C400B4003184390811F
:1076E000F8BDC0468C000020F7B50500019308AB3B
:1076F0000C0016001F78FFF722FE2800FFF776FF28
:10770000C021C022890224040C409203BF07360521
:10771000274316403E430C2707222B683E431E603A
:10772000019B296813401A0080239B0213434B607E
:107730002A68D3695B07FCD4F7BD0000F8B50400E4
:107740000F00FFF753FF2000FFF747FE14222368C6
:1077500079001A600C4B25681E68300001F09EFE0F
:107760000A490400300001F099FE7D23FA215843B4
:10777000C90001F093FEFF23241AE868053C1C4071
:1077800098430443EC60F8BD8C00002040420F0099
:107790003F20704713B56B460268D97107335468B0
:1077A00019000122A04716BD10B50221006900F0A2
:1077B0003DFC10BD10B50321006900F04DFC10BD6B
:1077C00010B51300084A0400D279002A03D101231E
:1077D0000020636010BD0A000069032100F034FD41
:1077E0000028F4D0F6E7C0461400002010B5054C80
:1077F00003002068421C04D11A681800526990479F
:10780000206010BD60000020074A0300106810B51A
:10781000411C03D001235B42136010BD0221186993
:1078200000F004FDF9E7C0466000002010B50378C1
:107830004222023303700249024800F0B1FD10BD3C
:107840001C0000204810002010B501780300427889
:107850000020A12908D1212A05D1174917481A3A31
:1078600000F09EFD012010BD2129FCD1202A13D15A
:1078700011491248193A00F033FC96220E4BD200FF
:10788000196891420ED1DA7901231A420AD1FA20FD
:1078900001F008FD0020E6E7222A06D19A78064B7F
:1078A000DA71EAE701F004FDF4E7232ADBD15A8814
:1078B000034B1A60D7E7C046140000204810002090
:1078C000100000207047000010B501F049FAFA23BB
:1078D00000245B00984207D3044B0A20DC79631E26
:1078E0009C41E4B201F072FA200010BD14000020A7
:1078F000FA220021054B92009A60054A08321A606C
:10790000044A59601A6119767047C0462C1000204D
:10791000ACFC000048100020704770B50F26CB1D4E
:1079200002003240D5B22C0000093034092A00DDB3
:1079300007341C705A1E994200D170BD1300EFE746
:1079400010B50400806904F095FDA06A04F092FD72
:10795000200010BD10B50400FFF7F2FF200001F079
:107960007FFA200010BD000070B5032908D1324B0A
:107970008000C058002802D00368DB68984770BDBB
:1079800082291FD1C3B22D4D5A01AA1891692C4CDE
:1079900080010C40C02189052143916129490833A8
:1079A0004018802150612A685B01D018047949424F
:1079B000214301717020995C81430800302101430B
:1079C0009954DCE70029DAD1C024C1B21B4E4A0128
:1079D000B21893681A4DA4052B40234393601A4BA9
:1079E0008001C0180B0050603068072608335B0127
:1079F000195CB1430E0001213143195491690D40C6
:107A00002C43946170240F495161195CA1430C000F
:107A100010212143195491680C4CC3180C4080214B
:107A20004903214391609168890B89039160402249
:107A300059790A435A71A2E74C1000200015002022
:107A4000FFFFFF8F7410002034120020FF3F00F072
:107A5000EFF3108303600123436072B6704703683D
:107A6000002B02D162B6BFF36F8F704737B505693F
:107A700004006846002D14D1FFF7EAFF019B621D48
:107A8000013B02D3D57FEDB2FAE768460193FFF7D9
:107A9000E6FF002D01D100203EBD206AE369C01A37
:107AA000FAE7FFF7D5FF22000025019B3432013BA6
:107AB00002D31578EDB2FAE768460193FFF7CFFFDE
:107AC000002DE8D0206BE36AE9E70000F0B5FF2560
:107AD00001264268836811682B405B01CC18641949
